{"abi":[{"type":"constructor","inputs":[{"name":"erc6551Registry_","type":"address","internalType":"address"},{"name":"erc6551Implementation_","type":"address","internalType":"address"},{"name":"michiBackpack_","type":"address","internalType":"address"},{"name":"feeReceiver_","type":"address","internalType":"address"},{"name":"depositFee_","type":"uint256","internalType":"uint256"},{"name":"feePrecision_","type":"uint256","internalType":"uint256"}],"stateMutability":"nonpayable"},{"type":"function","name":"addApprovedToken","inputs":[{"name":"token","type":"address","internalType":"address"}],"outputs":[],"stateMutability":"nonpayable"},{"type":"function","name":"approvedToken","inputs":[{"name":"","type":"address","internalType":"address"}],"outputs":[{"name":"","type":"bool","internalType":"bool"}],"stateMutability":"view"},{"type":"function","name":"createBackpack","inputs":[{"name":"quantity","type":"uint256","internalType":"uint256"}],"outputs":[],"stateMutability":"payable"},{"type":"function","name":"depositFee","inputs":[],"outputs":[{"name":"","type":"uint256","internalType":"uint256"}],"stateMutability":"view"},{"type":"function","name":"depositYT","inputs":[{"name":"token","type":"address","internalType":"address"},{"name":"backpack","type":"address","internalType":"address"},{"name":"amount","type":"uint256","internalType":"uint256"},{"name":"takeFee","type":"bool","internalType":"bool"}],"outputs":[],"stateMutability":"nonpayable"},{"type":"function","name":"depositsByAccountByToken","inputs":[{"name":"","type":"address","internalType":"address"},{"name":"","type":"address","internalType":"address"}],"outputs":[{"name":"","type":"uint256","internalType":"uint256"}],"stateMutability":"view"},{"type":"function","name":"depositsByToken","inputs":[{"name":"","type":"address","internalType":"address"}],"outputs":[{"name":"","type":"uint256","internalType":"uint256"}],"stateMutability":"view"},{"type":"function","name":"erc6551Implementation","inputs":[],"outputs":[{"name":"","type":"address","internalType":"address"}],"stateMutability":"view"},{"type":"function","name":"erc6551Registry","inputs":[],"outputs":[{"name":"","type":"address","internalType":"contract IERC6551Registry"}],"stateMutability":"view"},{"type":"function","name":"feePrecision","inputs":[],"outputs":[{"name":"","type":"uint256","internalType":"uint256"}],"stateMutability":"view"},{"type":"function","name":"feeReceiver","inputs":[],"outputs":[{"name":"","type":"address","internalType":"address"}],"stateMutability":"view"},{"type":"function","name":"feesCollectedByToken","inputs":[{"name":"","type":"address","internalType":"address"}],"outputs":[{"name":"","type":"uint256","internalType":"uint256"}],"stateMutability":"view"},{"type":"function","name":"listApprovedTokens","inputs":[{"name":"","type":"uint256","internalType":"uint256"}],"outputs":[{"name":"","type":"address","internalType":"address"}],"stateMutability":"view"},{"type":"function","name":"michiBackpack","inputs":[],"outputs":[{"name":"","type":"address","internalType":"contract IMichiBackpack"}],"stateMutability":"view"},{"type":"function","name":"owner","inputs":[],"outputs":[{"name":"","type":"address","internalType":"address"}],"stateMutability":"view"},{"type":"function","name":"removeApprovedToken","inputs":[{"name":"token","type":"address","internalType":"address"}],"outputs":[],"stateMutability":"nonpayable"},{"type":"function","name":"renounceOwnership","inputs":[],"outputs":[],"stateMutability":"nonpayable"},{"type":"function","name":"setDepositFee","inputs":[{"name":"newDepositFee","type":"uint256","internalType":"uint256"}],"outputs":[],"stateMutability":"nonpayable"},{"type":"function","name":"setFeeReceiver","inputs":[{"name":"newFeeReceiver","type":"address","internalType":"address"}],"outputs":[],"stateMutability":"nonpayable"},{"type":"function","name":"transferOwnership","inputs":[{"name":"newOwner","type":"address","internalType":"address"}],"outputs":[],"stateMutability":"nonpayable"},{"type":"function","name":"updateImplementation","inputs":[{"name":"newImplementation","type":"address","internalType":"address"}],"outputs":[],"stateMutability":"nonpayable"},{"type":"event","name":"BackpackCreated","inputs":[{"name":"sender","type":"address","indexed":true,"internalType":"address"},{"name":"backpack","type":"address","indexed":true,"internalType":"address"}],"anonymous":false},{"type":"event","name":"Deposit","inputs":[{"name":"sender","type":"address","indexed":true,"internalType":"address"},{"name":"receiver","type":"address","indexed":true,"internalType":"address"},{"name":"token","type":"address","indexed":true,"internalType":"address"},{"name":"amountAfterFees","type":"uint256","indexed":false,"internalType":"uint256"},{"name":"feeTaken","type":"uint256","indexed":false,"internalType":"uint256"}],"anonymous":false},{"type":"event","name":"OwnershipTransferred","inputs":[{"name":"previousOwner","type":"address","indexed":true,"internalType":"address"},{"name":"newOwner","type":"address","indexed":true,"internalType":"address"}],"anonymous":false},{"type":"error","name":"InvalidDepositFee","inputs":[{"name":"depositFee","type":"uint256","internalType":"uint256"}]},{"type":"error","name":"InvalidFeeReceiver","inputs":[{"name":"feeRecipient","type":"address","internalType":"address"}]},{"type":"error","name":"OwnerMismatch","inputs":[]},{"type":"error","name":"TokenAlreadyApproved","inputs":[{"name":"token","type":"address","internalType":"address"}]},{"type":"error","name":"TokenNotApproved","inputs":[{"name":"token","type":"address","internalType":"address"}]},{"type":"error","name":"UnauthorizedToken","inputs":[{"name":"token","type":"address","internalType":"address"}]},{"type":"error","name":"UnauthorizedUser","inputs":[{"name":"user","type":"address","internalType":"address"}]}],"bytecode":{"object":"0x60806040523480156200001157600080fd5b506040516200145838038062001458833981016040819052620000349162000109565b6200003f336200009c565b600280546001600160a01b039788166001600160a01b031991821617909155600380549688169682169690961790955560018054948716948616949094179093556004805492909516919093161790925560055560065562000178565b600080546001600160a01b038381166001600160a01b0319831681178455604051919092169283917f8be0079c531659141344cd1fd0a4f28419497f9722a3daafe3b4186f6b6457e09190a35050565b80516001600160a01b03811681146200010457600080fd5b919050565b60008060008060008060c087890312156200012357600080fd5b6200012e87620000ec565b95506200013e60208801620000ec565b94506200014e60408801620000ec565b93506200015e60608801620000ec565b92506080870151915060a087015190509295509295509295565b6112d080620001886000396000f3fe60806040526004361061012a5760003560e01c80638da5cb5b116100ab578063ebf8fb221161006f578063ebf8fb2214610355578063ed3bc23214610375578063efdcd97414610388578063f2fde38b146103a8578063f7de33bf146103c8578063fa391613146103e857600080fd5b80638da5cb5b146102aa578063a2c169a7146102c8578063b3dd12a2146102f5578063b3f0067414610315578063cd10534b1461033557600080fd5b80634df87c09116100f25780634df87c09146101f25780635705987a1461023257806367a52793146102525780636edad9a614610268578063715018a61461029557600080fd5b8063025b22bc1461012f578063056d5afe1461015157806322c236c71461018e57806335ff1e28146101ae578063490ae210146101d2575b600080fd5b34801561013b57600080fd5b5061014f61014a36600461102f565b610420565b005b34801561015d57600080fd5b50600254610171906001600160a01b031681565b6040516001600160a01b0390911681526020015b60405180910390f35b34801561019a57600080fd5b506101716101a9366004611053565b61044a565b3480156101ba57600080fd5b506101c460065481565b604051908152602001610185565b3480156101de57600080fd5b5061014f6101ed366004611053565b610474565b3480156101fe57600080fd5b5061022261020d36600461102f565b600a6020526000908152604090205460ff1681565b6040519015158152602001610185565b34801561023e57600080fd5b5061014f61024d36600461102f565b6104ac565b34801561025e57600080fd5b506101c460055481565b34801561027457600080fd5b506101c461028336600461102f565b60086020526000908152604090205481565b3480156102a157600080fd5b5061014f610618565b3480156102b657600080fd5b506000546001600160a01b0316610171565b3480156102d457600080fd5b506101c46102e336600461102f565b60096020526000908152604090205481565b34801561030157600080fd5b50600354610171906001600160a01b031681565b34801561032157600080fd5b50600454610171906001600160a01b031681565b34801561034157600080fd5b5061014f61035036600461102f565b61062c565b34801561036157600080fd5b50600154610171906001600160a01b031681565b61014f610383366004611053565b6106df565b34801561039457600080fd5b5061014f6103a336600461102f565b610957565b3480156103b457600080fd5b5061014f6103c336600461102f565b6109b3565b3480156103d457600080fd5b5061014f6103e336600461107a565b610a2c565b3480156103f457600080fd5b506101c46104033660046110cd565b600760209081526000928352604080842090915290825290205481565b610428610cab565b600380546001600160a01b0319166001600160a01b0392909216919091179055565b600b818154811061045a57600080fd5b6000918252602090912001546001600160a01b0316905081565b61047c610cab565b6101f48111156104a757604051630c49a8a160e31b8152600481018290526024015b60405180910390fd5b600555565b6104b4610cab565b6001600160a01b0381166000908152600a602052604090205460ff166104f8576040516343c90fad60e11b81526001600160a01b038216600482015260240161049e565b6001600160a01b0381166000908152600a60205260408120805460ff19169055600b54905b8181101561061357826001600160a01b0316600b828154811061054257610542611106565b6000918252602090912001546001600160a01b03160361060b57600b610569600184611132565b8154811061057957610579611106565b600091825260209091200154600b80546001600160a01b0390921691839081106105a5576105a5611106565b9060005260206000200160006101000a8154816001600160a01b0302191690836001600160a01b03160217905550600b8054806105e4576105e461114b565b600082815260209020810160001990810180546001600160a01b0319169055019055505050565b60010161051d565b505050565b610620610cab565b61062a6000610d05565b565b610634610cab565b6001600160a01b0381166000908152600a602052604090205460ff161561067957604051637664204760e01b81526001600160a01b038216600482015260240161049e565b6001600160a01b03166000818152600a60205260408120805460ff19166001908117909155600b805491820181559091527f0175b7a638427703f0dbe7bb9bbf987a2551717b34e79f33b5b1008d1fa01db90180546001600160a01b0319169091179055565b60005b8181101561095357600154604080516306c802d760e11b815290516000926001600160a01b031691630d9005ae9160048083019260209291908290030181865afa158015610734573d6000803e3d6000fd5b505050506040513d601f19601f820116820180604052508101906107589190611161565b6001546040516335313c2160e11b81523360048201529192506001600160a01b031690636a6278429034906024016000604051808303818588803b15801561079f57600080fd5b505af11580156107b3573d6000803e3d6000fd5b50506040805160006020820181905294500191506107ce9050565b6040516020818303038152906040526107e69061117a565b600254600354600154604051638a54c52f60e01b81526001600160a01b03928316600482015260248101859052466044820152908216606482015260848101869052929350600092911690638a54c52f9060a4016020604051808303816000875af1158015610859573d6000803e3d6000fd5b505050506040513d601f19601f8201168201806040525081019061087d91906111a1565b9050336001600160a01b0316816001600160a01b0316638da5cb5b6040518163ffffffff1660e01b8152600401602060405180830381865afa1580156108c7573d6000803e3d6000fd5b505050506040513d601f19601f820116820180604052508101906108eb91906111a1565b6001600160a01b0316146109125760405163a8c8162360e01b815260040160405180910390fd5b6040516001600160a01b0382169033907fda06ad2161a1ef57772f338fd5632e4a481c0ccd4cf68a3d8e0dd2b2a5fb4d6e90600090a35050506001016106e2565b5050565b61095f610cab565b6001600160a01b0381166109915760405163cb9339d560e01b81526001600160a01b038216600482015260240161049e565b600480546001600160a01b0319166001600160a01b0392909216919091179055565b6109bb610cab565b6001600160a01b038116610a205760405162461bcd60e51b815260206004820152602660248201527f4f776e61626c653a206e6577206f776e657220697320746865207a65726f206160448201526564647265737360d01b606482015260840161049e565b610a2981610d05565b50565b336001600160a01b0316836001600160a01b0316638da5cb5b6040518163ffffffff1660e01b8152600401602060405180830381865afa158015610a74573d6000803e3d6000fd5b505050506040513d601f19601f82011682018060405250810190610a9891906111a1565b6001600160a01b031614610ac15760405163ea93ab6d60e01b815233600482015260240161049e565b60008115610bd457600654600554610ad990856111be565b610ae391906111d5565b600454909150610b02906001600160a01b038781169133911684610d55565b610b233385610b118487611132565b6001600160a01b038916929190610d55565b610b2d8184611132565b6001600160a01b038086166000908152600760209081526040808320938a1683529290529081208054909190610b649084906111f7565b90915550610b7490508184611132565b6001600160a01b03861660009081526008602052604081208054909190610b9c9084906111f7565b90915550506001600160a01b03851660009081526009602052604081208054839290610bc99084906111f7565b90915550610c539050565b610be96001600160a01b038616338686610d55565b6001600160a01b03808516600090815260076020908152604080832093891683529290529081208054859290610c209084906111f7565b90915550506001600160a01b03851660009081526008602052604081208054859290610c4d9084906111f7565b90915550505b6001600160a01b03808616908516337f5fe47ed6d4225326d3303476197d782ded5a4e9c14f479dc9ec4992af4e85d59610c8d8588611132565b60408051918252602082018790520160405180910390a45050505050565b6000546001600160a01b0316331461062a5760405162461bcd60e51b815260206004820181905260248201527f4f776e61626c653a2063616c6c6572206973206e6f7420746865206f776e6572604482015260640161049e565b600080546001600160a01b038381166001600160a01b0319831681178455604051919092169283917f8be0079c531659141344cd1fd0a4f28419497f9722a3daafe3b4186f6b6457e09190a35050565b604080516001600160a01b0385811660248301528416604482015260648082018490528251808303909101815260849091019091526020810180516001600160e01b03166323b872dd60e01b179052610daf908590610db5565b50505050565b6000610e0a826040518060400160405280602081526020017f5361666545524332303a206c6f772d6c6576656c2063616c6c206661696c6564815250856001600160a01b0316610e8a9092919063ffffffff16565b9050805160001480610e2b575080806020019051810190610e2b919061120a565b6106135760405162461bcd60e51b815260206004820152602a60248201527f5361666545524332303a204552433230206f7065726174696f6e20646964206e6044820152691bdd081cdd58d8d9595960b21b606482015260840161049e565b6060610e998484600085610ea1565b949350505050565b606082471015610f025760405162461bcd60e51b815260206004820152602660248201527f416464726573733a20696e73756666696369656e742062616c616e636520666f6044820152651c8818d85b1b60d21b606482015260840161049e565b600080866001600160a01b03168587604051610f1e919061124b565b60006040518083038185875af1925050503d8060008114610f5b576040519150601f19603f3d011682016040523d82523d6000602084013e610f60565b606091505b5091509150610f7187838387610f7c565b979650505050505050565b60608315610feb578251600003610fe4576001600160a01b0385163b610fe45760405162461bcd60e51b815260206004820152601d60248201527f416464726573733a2063616c6c20746f206e6f6e2d636f6e7472616374000000604482015260640161049e565b5081610e99565b610e9983838151156110005781518083602001fd5b8060405162461bcd60e51b815260040161049e9190611267565b6001600160a01b0381168114610a2957600080fd5b60006020828403121561104157600080fd5b813561104c8161101a565b9392505050565b60006020828403121561106557600080fd5b5035919050565b8015158114610a2957600080fd5b6000806000806080858703121561109057600080fd5b843561109b8161101a565b935060208501356110ab8161101a565b92506040850135915060608501356110c28161106c565b939692955090935050565b600080604083850312156110e057600080fd5b82356110eb8161101a565b915060208301356110fb8161101a565b809150509250929050565b634e487b7160e01b600052603260045260246000fd5b634e487b7160e01b600052601160045260246000fd5b818103818111156111455761114561111c565b92915050565b634e487b7160e01b600052603160045260246000fd5b60006020828403121561117357600080fd5b5051919050565b8051602080830151919081101561119b576000198160200360031b1b821691505b50919050565b6000602082840312156111b357600080fd5b815161104c8161101a565b80820281158282048414176111455761114561111c565b6000826111f257634e487b7160e01b600052601260045260246000fd5b500490565b808201808211156111455761114561111c565b60006020828403121561121c57600080fd5b815161104c8161106c565b60005b8381101561124257818101518382015260200161122a565b50506000910152565b6000825161125d818460208701611227565b9190910192915050565b6020815260008251806020840152611286816040850160208701611227565b601f01601f1916919091016040019291505056fea2646970667358221220a5cd1cb71d71031ea9faff87ed59fc06905201525804a82a761440f42268c03664736f6c63430008180033","linkReferences":{}},"methodIdentifiers":{"addApprovedToken(address)":"cd10534b","approvedToken(address)":"4df87c09","createBackpack(uint256)":"ed3bc232","depositFee()":"67a52793","depositYT(address,address,uint256,bool)":"f7de33bf","depositsByAccountByToken(address,address)":"fa391613","depositsByToken(address)":"6edad9a6","erc6551Implementation()":"b3dd12a2","erc6551Registry()":"056d5afe","feePrecision()":"35ff1e28","feeReceiver()":"b3f00674","feesCollectedByToken(address)":"a2c169a7","listApprovedTokens(uint256)":"22c236c7","michiBackpack()":"ebf8fb22","owner()":"8da5cb5b","removeApprovedToken(address)":"5705987a","renounceOwnership()":"715018a6","setDepositFee(uint256)":"490ae210","setFeeReceiver(address)":"efdcd974","transferOwnership(address)":"f2fde38b","updateImplementation(address)":"025b22bc"},"id":90}