{"abi":[{"type":"constructor","inputs":[{"name":"_SY","type":"address","internalType":"address"},{"name":"_PT","type":"address","internalType":"address"},{"name":"_name","type":"string","internalType":"string"},{"name":"_symbol","type":"string","internalType":"string"},{"name":"__decimals","type":"uint8","internalType":"uint8"},{"name":"_expiry","type":"uint256","internalType":"uint256"},{"name":"_doCacheIndexSameBlock","type":"bool","internalType":"bool"}],"stateMutability":"nonpayable"},{"type":"function","name":"DOMAIN_SEPARATOR","inputs":[],"outputs":[{"name":"","type":"bytes32","internalType":"bytes32"}],"stateMutability":"view"},{"type":"function","name":"PT","inputs":[],"outputs":[{"name":"","type":"address","internalType":"address"}],"stateMutability":"view"},{"type":"function","name":"SY","inputs":[],"outputs":[{"name":"","type":"address","internalType":"address"}],"stateMutability":"view"},{"type":"function","name":"allowance","inputs":[{"name":"owner","type":"address","internalType":"address"},{"name":"spender","type":"address","internalType":"address"}],"outputs":[{"name":"","type":"uint256","internalType":"uint256"}],"stateMutability":"view"},{"type":"function","name":"approve","inputs":[{"name":"spender","type":"address","internalType":"address"},{"name":"amount","type":"uint256","internalType":"uint256"}],"outputs":[{"name":"","type":"bool","internalType":"bool"}],"stateMutability":"nonpayable"},{"type":"function","name":"balanceOf","inputs":[{"name":"account","type":"address","internalType":"address"}],"outputs":[{"name":"","type":"uint256","internalType":"uint256"}],"stateMutability":"view"},{"type":"function","name":"decimals","inputs":[],"outputs":[{"name":"","type":"uint8","internalType":"uint8"}],"stateMutability":"view"},{"type":"function","name":"doCacheIndexSameBlock","inputs":[],"outputs":[{"name":"","type":"bool","internalType":"bool"}],"stateMutability":"view"},{"type":"function","name":"eip712Domain","inputs":[],"outputs":[{"name":"fields","type":"bytes1","internalType":"bytes1"},{"name":"name","type":"string","internalType":"string"},{"name":"version","type":"string","internalType":"string"},{"name":"chainId","type":"uint256","internalType":"uint256"},{"name":"verifyingContract","type":"address","internalType":"address"},{"name":"salt","type":"bytes32","internalType":"bytes32"},{"name":"extensions","type":"uint256[]","internalType":"uint256[]"}],"stateMutability":"view"},{"type":"function","name":"expiry","inputs":[],"outputs":[{"name":"","type":"uint256","internalType":"uint256"}],"stateMutability":"view"},{"type":"function","name":"factory","inputs":[],"outputs":[{"name":"","type":"address","internalType":"address"}],"stateMutability":"view"},{"type":"function","name":"getPostExpiryData","inputs":[],"outputs":[{"name":"firstPYIndex","type":"uint256","internalType":"uint256"},{"name":"totalSyInterestForTreasury","type":"uint256","internalType":"uint256"},{"name":"firstRewardIndexes","type":"uint256[]","internalType":"uint256[]"},{"name":"userRewardOwed","type":"uint256[]","internalType":"uint256[]"}],"stateMutability":"view"},{"type":"function","name":"getRewardTokens","inputs":[],"outputs":[{"name":"","type":"address[]","internalType":"address[]"}],"stateMutability":"view"},{"type":"function","name":"isExpired","inputs":[],"outputs":[{"name":"","type":"bool","internalType":"bool"}],"stateMutability":"view"},{"type":"function","name":"mintPY","inputs":[{"name":"receiverPT","type":"address","internalType":"address"},{"name":"receiverYT","type":"address","internalType":"address"}],"outputs":[{"name":"amountPYOut","type":"uint256","internalType":"uint256"}],"stateMutability":"nonpayable"},{"type":"function","name":"mintPYMulti","inputs":[{"name":"receiverPTs","type":"address[]","internalType":"address[]"},{"name":"receiverYTs","type":"address[]","internalType":"address[]"},{"name":"amountSyToMints","type":"uint256[]","internalType":"uint256[]"}],"outputs":[{"name":"amountPYOuts","type":"uint256[]","internalType":"uint256[]"}],"stateMutability":"nonpayable"},{"type":"function","name":"name","inputs":[],"outputs":[{"name":"","type":"string","internalType":"string"}],"stateMutability":"view"},{"type":"function","name":"nonces","inputs":[{"name":"owner","type":"address","internalType":"address"}],"outputs":[{"name":"","type":"uint256","internalType":"uint256"}],"stateMutability":"view"},{"type":"function","name":"permit","inputs":[{"name":"owner","type":"address","internalType":"address"},{"name":"spender","type":"address","internalType":"address"},{"name":"value","type":"uint256","internalType":"uint256"},{"name":"deadline","type":"uint256","internalType":"uint256"},{"name":"v","type":"uint8","internalType":"uint8"},{"name":"r","type":"bytes32","internalType":"bytes32"},{"name":"s","type":"bytes32","internalType":"bytes32"}],"outputs":[],"stateMutability":"nonpayable"},{"type":"function","name":"postExpiry","inputs":[],"outputs":[{"name":"firstPYIndex","type":"uint128","internalType":"uint128"},{"name":"totalSyInterestForTreasury","type":"uint128","internalType":"uint128"}],"stateMutability":"view"},{"type":"function","name":"pyIndexCurrent","inputs":[],"outputs":[{"name":"currentIndex","type":"uint256","internalType":"uint256"}],"stateMutability":"nonpayable"},{"type":"function","name":"pyIndexLastUpdatedBlock","inputs":[],"outputs":[{"name":"","type":"uint128","internalType":"uint128"}],"stateMutability":"view"},{"type":"function","name":"pyIndexStored","inputs":[],"outputs":[{"name":"","type":"uint256","internalType":"uint256"}],"stateMutability":"view"},{"type":"function","name":"redeemDueInterestAndRewards","inputs":[{"name":"user","type":"address","internalType":"address"},{"name":"redeemInterest","type":"bool","internalType":"bool"},{"name":"redeemRewards","type":"bool","internalType":"bool"}],"outputs":[{"name":"interestOut","type":"uint256","internalType":"uint256"},{"name":"rewardsOut","type":"uint256[]","internalType":"uint256[]"}],"stateMutability":"nonpayable"},{"type":"function","name":"redeemInterestAndRewardsPostExpiryForTreasury","inputs":[],"outputs":[{"name":"interestOut","type":"uint256","internalType":"uint256"},{"name":"rewardsOut","type":"uint256[]","internalType":"uint256[]"}],"stateMutability":"nonpayable"},{"type":"function","name":"redeemPY","inputs":[{"name":"receiver","type":"address","internalType":"address"}],"outputs":[{"name":"amountSyOut","type":"uint256","internalType":"uint256"}],"stateMutability":"nonpayable"},{"type":"function","name":"redeemPYMulti","inputs":[{"name":"receivers","type":"address[]","internalType":"address[]"},{"name":"amountPYToRedeems","type":"uint256[]","internalType":"uint256[]"}],"outputs":[{"name":"amountSyOuts","type":"uint256[]","internalType":"uint256[]"}],"stateMutability":"nonpayable"},{"type":"function","name":"rewardIndexesCurrent","inputs":[],"outputs":[{"name":"","type":"uint256[]","internalType":"uint256[]"}],"stateMutability":"nonpayable"},{"type":"function","name":"setPostExpiryData","inputs":[],"outputs":[],"stateMutability":"nonpayable"},{"type":"function","name":"syReserve","inputs":[],"outputs":[{"name":"","type":"uint256","internalType":"uint256"}],"stateMutability":"view"},{"type":"function","name":"symbol","inputs":[],"outputs":[{"name":"","type":"string","internalType":"string"}],"stateMutability":"view"},{"type":"function","name":"totalSupply","inputs":[],"outputs":[{"name":"","type":"uint256","internalType":"uint256"}],"stateMutability":"view"},{"type":"function","name":"transfer","inputs":[{"name":"to","type":"address","internalType":"address"},{"name":"amount","type":"uint256","internalType":"uint256"}],"outputs":[{"name":"","type":"bool","internalType":"bool"}],"stateMutability":"nonpayable"},{"type":"function","name":"transferFrom","inputs":[{"name":"from","type":"address","internalType":"address"},{"name":"to","type":"address","internalType":"address"},{"name":"amount","type":"uint256","internalType":"uint256"}],"outputs":[{"name":"","type":"bool","internalType":"bool"}],"stateMutability":"nonpayable"},{"type":"function","name":"userInterest","inputs":[{"name":"","type":"address","internalType":"address"}],"outputs":[{"name":"index","type":"uint128","internalType":"uint128"},{"name":"accrued","type":"uint128","internalType":"uint128"}],"stateMutability":"view"},{"type":"function","name":"userReward","inputs":[{"name":"","type":"address","internalType":"address"},{"name":"","type":"address","internalType":"address"}],"outputs":[{"name":"index","type":"uint128","internalType":"uint128"},{"name":"accrued","type":"uint128","internalType":"uint128"}],"stateMutability":"view"},{"type":"event","name":"Approval","inputs":[{"name":"owner","type":"address","indexed":true,"internalType":"address"},{"name":"spender","type":"address","indexed":true,"internalType":"address"},{"name":"value","type":"uint256","indexed":false,"internalType":"uint256"}],"anonymous":false},{"type":"event","name":"Burn","inputs":[{"name":"caller","type":"address","indexed":true,"internalType":"address"},{"name":"receiver","type":"address","indexed":true,"internalType":"address"},{"name":"amountPYToRedeem","type":"uint256","indexed":false,"internalType":"uint256"},{"name":"amountSyOut","type":"uint256","indexed":false,"internalType":"uint256"}],"anonymous":false},{"type":"event","name":"CollectInterestFee","inputs":[{"name":"amountInterestFee","type":"uint256","indexed":false,"internalType":"uint256"}],"anonymous":false},{"type":"event","name":"CollectRewardFee","inputs":[{"name":"rewardToken","type":"address","indexed":true,"internalType":"address"},{"name":"amountRewardFee","type":"uint256","indexed":false,"internalType":"uint256"}],"anonymous":false},{"type":"event","name":"EIP712DomainChanged","inputs":[],"anonymous":false},{"type":"event","name":"Mint","inputs":[{"name":"caller","type":"address","indexed":true,"internalType":"address"},{"name":"receiverPT","type":"address","indexed":true,"internalType":"address"},{"name":"receiverYT","type":"address","indexed":true,"internalType":"address"},{"name":"amountSyToMint","type":"uint256","indexed":false,"internalType":"uint256"},{"name":"amountPYOut","type":"uint256","indexed":false,"internalType":"uint256"}],"anonymous":false},{"type":"event","name":"NewInterestIndex","inputs":[{"name":"newIndex","type":"uint256","indexed":true,"internalType":"uint256"}],"anonymous":false},{"type":"event","name":"RedeemInterest","inputs":[{"name":"user","type":"address","indexed":true,"internalType":"address"},{"name":"interestOut","type":"uint256","indexed":false,"internalType":"uint256"}],"anonymous":false},{"type":"event","name":"RedeemRewards","inputs":[{"name":"user","type":"address","indexed":true,"internalType":"address"},{"name":"amountRewardsOut","type":"uint256[]","indexed":false,"internalType":"uint256[]"}],"anonymous":false},{"type":"event","name":"Transfer","inputs":[{"name":"from","type":"address","indexed":true,"internalType":"address"},{"name":"to","type":"address","indexed":true,"internalType":"address"},{"name":"value","type":"uint256","indexed":false,"internalType":"uint256"}],"anonymous":false},{"type":"error","name":"ArrayEmpty","inputs":[]},{"type":"error","name":"ArrayLengthMismatch","inputs":[]},{"type":"error","name":"InvalidShortString","inputs":[]},{"type":"error","name":"StringTooLong","inputs":[{"name":"str","type":"string","internalType":"string"}]},{"type":"error","name":"YCExpired","inputs":[]},{"type":"error","name":"YCNoFloatingSy","inputs":[]},{"type":"error","name":"YCNotExpired","inputs":[]},{"type":"error","name":"YCNothingToRedeem","inputs":[]},{"type":"error","name":"YCPostExpiryDataNotSet","inputs":[]},{"type":"error","name":"YieldContractInsufficientSy","inputs":[{"name":"actualSy","type":"uint256","internalType":"uint256"},{"name":"requiredSy","type":"uint256","internalType":"uint256"}]}],"bytecode":{"object":"0x6102206040523480156200001257600080fd5b506040516200511d3803806200511d8339810160408190526200003591620002ef565b84848482604051806040016040528060018152602001603160f81b81525084848482600390816200006791906200044f565b5060046200007683826200044f565b5060ff166080525050600280546001600160f81b0316600160f81b179055620000a182600562000180565b61014052620000b281600662000180565b61016052815160208084019190912061010052815190820120610120524660c052620001426101005161012051604080517f8b73c3c69bb8fe3d512ecc4cf759cc79239f7b179b0ffacaa9a75d522b39400f60208201529081019290925260608201524660808201523060a082015260009060c00160405160208183030381529060405280519060200120905090565b60a05250503060e0525050506001600160a01b0396871661018052949095166101a0525050506101e091909152336101c05215156102005262000575565b6000602083511015620001a0576200019883620001b9565b9050620001b3565b81620001ad84826200044f565b5060ff90505b92915050565b600080829050601f81511115620001f0578260405163305a27a960e01b8152600401620001e791906200051b565b60405180910390fd5b8051620001fd8262000550565b179392505050565b80516001600160a01b03811681146200021d57600080fd5b919050565b634e487b7160e01b600052604160045260246000fd5b60005b83811015620002555781810151838201526020016200023b565b50506000910152565b600082601f8301126200027057600080fd5b81516001600160401b03808211156200028d576200028d62000222565b604051601f8301601f19908116603f01168101908282118183101715620002b857620002b862000222565b81604052838152866020858801011115620002d257600080fd5b620002e584602083016020890162000238565b9695505050505050565b600080600080600080600060e0888a0312156200030b57600080fd5b620003168862000205565b9650620003266020890162000205565b60408901519096506001600160401b03808211156200034457600080fd5b620003528b838c016200025e565b965060608a01519150808211156200036957600080fd5b50620003788a828b016200025e565b945050608088015160ff811681146200039057600080fd5b60a089015160c08a015191945092508015158114620003ae57600080fd5b8091505092959891949750929550565b600181811c90821680620003d357607f821691505b602082108103620003f457634e487b7160e01b600052602260045260246000fd5b50919050565b601f8211156200044a576000816000526020600020601f850160051c81016020861015620004255750805b601f850160051c820191505b81811015620004465782815560010162000431565b5050505b505050565b81516001600160401b038111156200046b576200046b62000222565b62000483816200047c8454620003be565b84620003fa565b602080601f831160018114620004bb5760008415620004a25750858301515b600019600386901b1c1916600185901b17855562000446565b600085815260208120601f198616915b82811015620004ec57888601518255948401946001909101908401620004cb565b50858210156200050b5787850151600019600388901b60f8161c191681555b5050505050600190811b01905550565b60208152600082518060208401526200053c81604085016020870162000238565b601f01601f19169190910160400192915050565b80516020808301519190811015620003f45760001960209190910360031b1b16919050565b60805160a05160c05160e05161010051610120516101405161016051610180516101a0516101c0516101e05161020051614a71620006ac600039600081816103450152611a7b01526000818161060e01526109960152600081816104f601528181610d5001528181610f9a015281816130c9015261314f01526000818161059b0152818161236d01528181612b3901528181612dd50152612e1301526000818161049101528181610d2f015281816111b701528181611496015281816118d701528181611ad60152818161201b015281816120a50152818161223e0152818161250b015281816128ab01528181612c5e0152613a7c01526000610e4101526000610e1601526000611f7301526000611f4b01526000611ea601526000611ed001526000611efa015260006102fb0152614a716000f3fe608060405234801561001057600080fd5b506004361061021c5760003560e01c806384b0196e11610125578063cdbb0361116100ad578063d94073d41161007c578063d94073d414610596578063db74aa15146105bd578063dd62ed3e146105d0578063e184c9be14610609578063f8b2f9911461063057600080fd5b8063cdbb03611461052d578063d2a3584e14610537578063d505accf1461054f578063d68076c31461056257600080fd5b8063afd27bf5116100f4578063afd27bf51461048c578063b0d88981146104cb578063bcb7ea5d146104de578063c45a0155146104f1578063c4f59f9b1461051857600080fd5b806384b0196e1461044e57806395d89b4114610469578063a9059cbb14610471578063acc5da4c1461048457600080fd5b80633644e515116101a85780635cbadbe4116101775780635cbadbe41461038757806360e0a9e1146103c657806370a08231146103f15780637d24da4d1461041a5780637ecebe001461043b57600080fd5b80633644e5151461032f5780634ba6dcd714610337578063516399df14610340578063533358191461036757600080fd5b806318160ddd116101ef57806318160ddd146102b85780631d52edc4146102d357806323b872dd146102db5780632f13b60c146102ee578063313ce567146102f657600080fd5b806306fdde0314610221578063095ea7b31461023f5780630a2b83a7146102625780630b49fcef146102a0575b600080fd5b610229610638565b6040516102369190614231565b60405180910390f35b61025261024d366004614259565b6106ca565b6040519015158152602001610236565b600c54610280906001600160801b0380821691600160801b90041682565b604080516001600160801b03938416815292909116602083015201610236565b6102a86106e4565b60405161023694939291906142c1565b6002546001600160f81b03165b604051908152602001610236565b6102c56108a5565b6102526102e93660046142f2565b610916565b610252610994565b61031d7f000000000000000000000000000000000000000000000000000000000000000081565b60405160ff9091168152602001610236565b6102c56109c0565b6102c5600a5481565b6102527f000000000000000000000000000000000000000000000000000000000000000081565b61037a610375366004614377565b6109ca565b6040516102369190614410565b610280610395366004614423565b60086020908152600092835260408084209091529082529020546001600160801b0380821691600160801b90041682565b600b546103d9906001600160801b031681565b6040516001600160801b039091168152602001610236565b6102c56103ff36600461445c565b6001600160a01b031660009081526020819052604090205490565b61042d610428366004614487565b610bde565b6040516102369291906144d2565b6102c561044936600461445c565b610dea565b610456610e08565b60405161023697969594939291906144eb565b610229610e91565b61025261047f366004614259565b610ea0565b61042d610f13565b6104b37f000000000000000000000000000000000000000000000000000000000000000081565b6040516001600160a01b039091168152602001610236565b61037a6104d936600461455b565b611232565b6102c56104ec36600461445c565b611363565b6104b37f000000000000000000000000000000000000000000000000000000000000000081565b610520611492565b60405161023691906145c6565b61053561151a565b005b600b54600160801b90046001600160801b03166102c5565b61053561055d366004614613565b611589565b61028061057036600461445c565b6009602052600090815260409020546001600160801b0380821691600160801b90041682565b6104b37f000000000000000000000000000000000000000000000000000000000000000081565b6102c56105cb366004614423565b6116ed565b6102c56105de366004614423565b6001600160a01b03918216600090815260016020908152604080832093909416825291909152205490565b6102c57f000000000000000000000000000000000000000000000000000000000000000081565b61037a61187f565b6060600380546106479061468a565b80601f01602080910402602001604051908101604052809291908181526020018280546106739061468a565b80156106c05780601f10610695576101008083540402835291602001916106c0565b820191906000526020600020905b8154815290600101906020018083116106a357829003601f168201915b5050505050905090565b6000336106d8818585611953565b60019150505b92915050565b600c54600090819060609081906001600160801b031683036107195760405163d250963360e01b815260040160405180910390fd5b600c546001600160801b038082169550600160801b909104169250600061073e611492565b905080516001600160401b03811115610759576107596146be565b604051908082528060200260200182016040528015610782578160200160208202803683370190505b50925080516001600160401b0381111561079e5761079e6146be565b6040519080825280602002602001820160405280156107c7578160200160208202803683370190505b50915060005b815181101561089d57600c60010160008383815181106107ef576107ef6146d4565b60200260200101516001600160a01b03166001600160a01b031681526020019081526020016000205484828151811061082a5761082a6146d4565b602002602001018181525050600c600201600083838151811061084f5761084f6146d4565b60200260200101516001600160a01b03166001600160a01b031681526020019081526020016000205483828151811061088a5761088a6146d4565b60209081029190910101526001016107cd565b505090919293565b600254600090600119600160f81b90910460ff16016108df5760405162461bcd60e51b81526004016108d6906146ea565b60405180910390fd5b600280546001600160f81b0316600160f91b1790556108fc611a77565b600280546001600160f81b0316600160f81b179055919050565b600254600090600119600160f81b90910460ff16016109475760405162461bcd60e51b81526004016108d6906146ea565b600280546001600160f81b0316600160f91b17905533610968858285611bcd565b610973858585611c5f565b6001915050600280546001600160f81b0316600160f81b1790559392505050565b7f000000000000000000000000000000000000000000000000000000000000000042101590565b905090565b60006109bb611e99565b600254606090600119600160f81b90910460ff16016109fb5760405162461bcd60e51b81526004016108d6906146ea565b600280546001600160f81b0316600160f91b179055610a18610994565b15610a3657604051632d8ad36d60e11b815260040160405180910390fd5b610a3e610994565b15610a4b57610a4b611fc7565b856000819003610a6e57604051633c4d929d60e21b815260040160405180910390fd5b8481141580610a7d5750828114155b15610a9b5760405163512509d360e11b815260040160405180910390fd5b6000610ad98585808060200260200160405190810160405280939291908181526020018383602002808284376000920191909152506121f092505050565b9050610ae3612234565b811115610b155780610af3612234565b60405163a2cb081960e01b8152600481019290925260248201526044016108d6565b610bb389898080602002602001604051908101604052809392919081815260200183836020028082843760009201919091525050604080516020808d0282810182019093528c82529093508c92508b91829185019084908082843760009201919091525050604080516020808c0282810182019093528b82529093508b92508a91829185019084908082843760009201919091525061228f92505050565b92505050610bbf612506565b600280546001600160f81b0316600160f81b1790559695505050505050565b600254600090606090600119600160f81b90910460ff1601610c125760405162461bcd60e51b81526004016108d6906146ea565b600280546001600160f81b0316600160f91b179055610c2f610994565b15610c3c57610c3c611fc7565b83158015610c48575082155b15610c66576040516368146f1d60e01b815260040160405180910390fd5b610c6f85612534565b8215610cc757610c7f8586612542565b9050846001600160a01b03167f78d61a0c27b13f43911095f9f356f14daa3cd8b125eea1aa22421245e90e813d82604051610cba9190614410565b60405180910390a2610d1a565b6000610cd1611492565b905080516001600160401b03811115610cec57610cec6146be565b604051908082528060200260200182016040528015610d15578160200160208202803683370190505b509150505b8315610dbe57610d2985612671565b610d74857f00000000000000000000000000000000000000000000000000000000000000007f000000000000000000000000000000000000000000000000000000000000000061267c565b9150846001600160a01b03167f83a945bd12c713615b59a6e48a3467c05d1a7442350600d6f7fce6af9f7190e983604051610db191815260200190565b60405180910390a2610dc3565b600091505b610dcb612506565b600280546001600160f81b0316600160f81b1790559094909350915050565b6001600160a01b0381166000908152600760205260408120546106de565b600060608082808083610e3c7f000000000000000000000000000000000000000000000000000000000000000060056127eb565b610e677f000000000000000000000000000000000000000000000000000000000000000060066127eb565b60408051600080825260208201909252600f60f81b9b939a50919850469750309650945092509050565b6060600480546106479061468a565b600254600090600119600160f81b90910460ff1601610ed15760405162461bcd60e51b81526004016108d6906146ea565b600280546001600160f81b0316600160f91b17905533610ef2818585611c5f565b60019150505b600280546001600160f81b0316600160f81b17905592915050565b600254600090606090600119600160f81b90910460ff1601610f475760405162461bcd60e51b81526004016108d6906146ea565b600280546001600160f81b0316600160f91b179055610f64610994565b15610f7157610f71611fc7565b610f79610994565b610f96576040516366c0d31b60e11b815260040160405180910390fd5b60007f00000000000000000000000000000000000000000000000000000000000000006001600160a01b03166361d027b36040518163ffffffff1660e01b8152600401602060405180830381865afa158015610ff6573d6000803e3d6000fd5b505050506040513d601f19601f8201168201806040525081019061101a9190614721565b90506000611026611492565b905080516001600160401b03811115611041576110416146be565b60405190808252806020026020018201604052801561106a578160200160208202803683370190505b509250611075612896565b60005b815181101561118a57600c600201600083838151811061109a5761109a6146d4565b60200260200101516001600160a01b03166001600160a01b03168152602001908152602001600020546110e58383815181106110d8576110d86146d4565b6020026020010151612924565b6110ef9190614754565b848281518110611101576111016146d4565b60200260200101818152505081818151811061111f5761111f6146d4565b60200260200101516001600160a01b03167f880a48d40a6133941abdcfabd5c5f9a791b1e6c8afd23138c5a36e3d95039222858381518110611163576111636146d4565b602002602001015160405161117a91815260200190565b60405180910390a2600101611078565b506111968183856129a9565b600c80546001600160801b03808216909255600160801b90041693506111dd7f00000000000000000000000000000000000000000000000000000000000000008386612a44565b6040518481527e4e8d79e4b41c5fad7561dc7c07786ee4e52292da7a3f5dc7ab90e32cc304239060200160405180910390a15050611219612506565b600280546001600160f81b0316600160f81b1790559091565b600254606090600119600160f81b90910460ff16016112635760405162461bcd60e51b81526004016108d6906146ea565b600280546001600160f81b0316600160f91b179055611280610994565b1561128d5761128d611fc7565b8382146112ad5760405163512509d360e11b815260040160405180910390fd5b60008490036112cf57604051633c4d929d60e21b815260040160405180910390fd5b61133c85858080602002602001604051908101604052809392919081815260200183836020028082843760009201919091525050604080516020808902828101820190935288825290935088925087918291850190849080828437600092019190915250612b0d92505050565b9050611346612506565b600280546001600160f81b0316600160f81b179055949350505050565b600254600090600119600160f81b90910460ff16016113945760405162461bcd60e51b81526004016108d6906146ea565b600280546001600160f81b0316600160f91b1790556113b1610994565b156113be576113be611fc7565b6040805160018082528183019092526000916020808301908036833750506040805160018082528183019092529293506000929150602080830190803683370190505090508361140c612dbf565b8360008151811061141f5761141f6146d4565b6020026020010183600081518110611439576114396146d4565b6020026020010182815250826001600160a01b03166001600160a01b0316815250505060606114688383612b0d565b90508060008151811061147d5761147d6146d4565b602002602001015193505050506108fc612506565b60607f00000000000000000000000000000000000000000000000000000000000000006001600160a01b031663c4f59f9b6040518163ffffffff1660e01b8152600401600060405180830381865afa1580156114f2573d6000803e3d6000fd5b505050506040513d6000823e601f3d908101601f191682016040526109bb91908101906147ba565b600254600119600160f81b90910460ff16016115485760405162461bcd60e51b81526004016108d6906146ea565b600280546001600160f81b0316600160f91b179055611565610994565b1561157257611572611fc7565b600280546001600160f81b0316600160f81b179055565b834211156115d95760405162461bcd60e51b815260206004820152601d60248201527f45524332305065726d69743a206578706972656420646561646c696e6500000060448201526064016108d6565b60007f6e71edae12b1b97f4d1f60370fef10105fa2faae0126114a169c64845d6126c98888886116088c612e37565b6040805160208101969096526001600160a01b0394851690860152929091166060840152608083015260a082015260c0810186905260e001604051602081830303815290604052805190602001209050600061166382612e5f565b9050600061167382878787612e8c565b9050896001600160a01b0316816001600160a01b0316146116d65760405162461bcd60e51b815260206004820152601e60248201527f45524332305065726d69743a20696e76616c6964207369676e6174757265000060448201526064016108d6565b6116e18a8a8a611953565b50505050505050505050565b600254600090600119600160f81b90910460ff160161171e5760405162461bcd60e51b81526004016108d6906146ea565b600280546001600160f81b0316600160f91b17905561173b610994565b1561175957604051632d8ad36d60e11b815260040160405180910390fd5b611761610994565b1561176e5761176e611fc7565b604080516001808252818301909252600091602080830190803683375050604080516001808252818301909252929350600092915060208083019080368337505060408051600180825281830190925292935060009291506020808301908036833701905050905085856117e0612234565b856000815181106117f3576117f36146d4565b602002602001018560008151811061180d5761180d6146d4565b6020026020010185600081518110611827576118276146d4565b60209081029190910101929092526001600160a01b0392831690915291169052600061185484848461228f565b905080600081518110611869576118696146d4565b6020026020010151945050505050610ef8612506565b600254606090600119600160f81b90910460ff16016118b05760405162461bcd60e51b81526004016108d6906146ea565b600280546001600160f81b0316600160f91b1790556040805163f8b2f99160e01b815290517f00000000000000000000000000000000000000000000000000000000000000006001600160a01b03169163f8b2f991916004808301926000929190829003018183875af115801561192b573d6000803e3d6000fd5b505050506040513d6000823e601f3d908101601f191682016040526108fc919081019061484d565b6001600160a01b0383166119b55760405162461bcd60e51b8152602060048201526024808201527f45524332303a20617070726f76652066726f6d20746865207a65726f206164646044820152637265737360e01b60648201526084016108d6565b6001600160a01b038216611a165760405162461bcd60e51b815260206004820152602260248201527f45524332303a20617070726f766520746f20746865207a65726f206164647265604482015261737360f01b60648201526084016108d6565b6001600160a01b0383811660008181526001602090815260408083209487168084529482529182902085905590518481527f8c5be1e5ebec7d5bd14f71427d1e84f3dd0314c0f7b2291e5b200ac8c7c3b925910160405180910390a3505050565b60007f00000000000000000000000000000000000000000000000000000000000000008015611ab05750600b546001600160801b031643145b15611acc5750600b54600160801b90046001600160801b031690565b6000611b73611b6e7f00000000000000000000000000000000000000000000000000000000000000006001600160a01b0316633ba0b9a96040518163ffffffff1660e01b8152600401602060405180830381865afa158015611b32573d6000803e3d6000fd5b505050506040513d601f19601f82011682018060405250810190611b5691906148d2565b600b54600160801b90046001600160801b0316612eb4565b612ecc565b436001600160801b03908116600160801b9183169182026001600160801b03191617600b5560405190935090915082907f71475f2f645813fdbebf53a58968008bff11ee21a58f01c5a9cc263d0bc4703d90600090a25090565b6001600160a01b038381166000908152600160209081526040808320938616835292905220546000198114611c595781811015611c4c5760405162461bcd60e51b815260206004820152601d60248201527f45524332303a20696e73756666696369656e7420616c6c6f77616e636500000060448201526064016108d6565b611c598484848403611953565b50505050565b6001600160a01b038316611cc35760405162461bcd60e51b815260206004820152602560248201527f45524332303a207472616e736665722066726f6d20746865207a65726f206164604482015264647265737360d81b60648201526084016108d6565b6001600160a01b038216611d255760405162461bcd60e51b815260206004820152602360248201527f45524332303a207472616e7366657220746f20746865207a65726f206164647260448201526265737360e81b60648201526084016108d6565b816001600160a01b0316836001600160a01b031603611d865760405162461bcd60e51b815260206004820152601760248201527f45524332303a207472616e7366657220746f2073656c6600000000000000000060448201526064016108d6565b611d91838383612ee6565b6001600160a01b03831660009081526020819052604090205481811015611e095760405162461bcd60e51b815260206004820152602660248201527f45524332303a207472616e7366657220616d6f756e7420657863656564732062604482015265616c616e636560d01b60648201526084016108d6565b6001600160a01b03808516600090815260208190526040808220858503905591851681529081208054849290611e409084906148eb565b92505081905550826001600160a01b0316846001600160a01b03167fddf252ad1be2c89b69c2b068fc378daa952ba7f163c4a11628f55a4df523b3ef84604051611e8c91815260200190565b60405180910390a3611c59565b6000306001600160a01b037f000000000000000000000000000000000000000000000000000000000000000016148015611ef257507f000000000000000000000000000000000000000000000000000000000000000046145b15611f1c57507f000000000000000000000000000000000000000000000000000000000000000090565b6109bb604080517f8b73c3c69bb8fe3d512ecc4cf759cc79239f7b179b0ffacaa9a75d522b39400f60208201527f0000000000000000000000000000000000000000000000000000000000000000918101919091527f000000000000000000000000000000000000000000000000000000000000000060608201524660808201523060a082015260009060c00160405160208183030381529060405280519060200120905090565b90565b600c80546001600160801b031615611fdc5750565b611fe4612896565b611fef611b6e611a77565b8160000160006101000a8154816001600160801b0302191690836001600160801b0316021790555060007f00000000000000000000000000000000000000000000000000000000000000006001600160a01b031663c4f59f9b6040518163ffffffff1660e01b8152600401600060405180830381865afa158015612077573d6000803e3d6000fd5b505050506040513d6000823e601f3d908101601f1916820160405261209f91908101906147ba565b905060007f00000000000000000000000000000000000000000000000000000000000000006001600160a01b031663f8b2f9916040518163ffffffff1660e01b81526004016000604051808303816000875af1158015612103573d6000803e3d6000fd5b505050506040513d6000823e601f3d908101601f1916820160405261212b919081019061484d565b905060005b8251811015611c595781818151811061214b5761214b6146d4565b602002602001015184600101600085848151811061216b5761216b6146d4565b60200260200101516001600160a01b03166001600160a01b03168152602001908152602001600020819055506121ac8382815181106110d8576110d86146d4565b8460020160008584815181106121c4576121c46146d4565b6020908102919091018101516001600160a01b0316825281019190915260400160002055600101612130565b600080805b835181101561222d57838181518110612210576122106146d4565b60200260200101518261222391906148eb565b91506001016121f5565b5092915050565b6000600a546122627f0000000000000000000000000000000000000000000000000000000000000000612924565b61226c9190614754565b905080600003611fc457604051632282661960e01b815260040160405180910390fd5b606081516001600160401b038111156122aa576122aa6146be565b6040519080825280602002602001820160405280156122d3578160200160208202803683370190505b50905060006122e0611a77565b905060005b83518110156124fd57612311848281518110612303576123036146d4565b602002602001015183612f0f565b838281518110612323576123236146d4565b60200260200101818152505061236b858281518110612344576123446146d4565b602002602001015184838151811061235e5761235e6146d4565b6020026020010151612f1b565b7f00000000000000000000000000000000000000000000000000000000000000006001600160a01b03166312a31dcc8783815181106123ac576123ac6146d4565b60200260200101518584815181106123c6576123c66146d4565b60200260200101516040518363ffffffff1660e01b81526004016123ff9291906001600160a01b03929092168252602082015260400190565b600060405180830381600087803b15801561241957600080fd5b505af115801561242d573d6000803e3d6000fd5b50505050848181518110612443576124436146d4565b60200260200101516001600160a01b0316868281518110612466576124666146d4565b60200260200101516001600160a01b0316336001600160a01b03167fc0025304673122449dd60b9b0093874b0e2fd6fe57af1c7c2fbfee0ccf5ead588785815181106124b4576124b46146d4565b60200260200101518786815181106124ce576124ce6146d4565b60200260200101516040516124ed929190918252602082015260400190565b60405180910390a46001016122e5565b50509392505050565b61252f7f0000000000000000000000000000000000000000000000000000000000000000612924565b600a55565b61253f816000613043565b50565b6060600061254e611492565b9050612558610994565b1561265c5760005b8151811015612647576008600083838151811061257f5761257f6146d4565b60200260200101516001600160a01b03166001600160a01b031681526020019081526020016000206000866001600160a01b03166001600160a01b0316815260200190815260200160002060000160109054906101000a90046001600160801b03166001600160801b0316600c6002016000848481518110612603576126036146d4565b60200260200101516001600160a01b03166001600160a01b03168152602001908152602001600020600082825461263a9190614754565b9091555050600101612560565b5061265581858560006130c3565b915061222d565b61266981858560016130c3565b949350505050565b61253f81600061344d565b600080826001600160a01b03166361d027b36040518163ffffffff1660e01b8152600401602060405180830381865afa1580156126bd573d6000803e3d6000fd5b505050506040513d601f19601f820116820180604052508101906126e19190614721565b90506000836001600160a01b031663dd86fea16040518163ffffffff1660e01b8152600401602060405180830381865afa158015612723573d6000803e3d6000fd5b505050506040513d601f19601f8201168201806040525081019061274791906148fe565b6001600160a01b038716600090815260096020526040812080546001600160801b038181169092559281169350600160801b9092049091169061278a82846134b9565b90506127968183614754565b94506127a3878583612a44565b6127ae878987612a44565b6040518181527e4e8d79e4b41c5fad7561dc7c07786ee4e52292da7a3f5dc7ab90e32cc304239060200160405180910390a1505050509392505050565b606060ff8314612805576127fe836134dc565b90506106de565b8180546128119061468a565b80601f016020809104026020016040519081016040528092919081815260200182805461283d9061468a565b801561288a5780601f1061285f5761010080835404028352916020019161288a565b820191906000526020600020905b81548152906001019060200180831161286d57829003601f168201915b505050505090506106de565b604051633bd73ee360e21b81523060048201527f00000000000000000000000000000000000000000000000000000000000000006001600160a01b03169063ef5cfb8c906024016000604051808303816000875af11580156128fc573d6000803e3d6000fd5b505050506040513d6000823e601f3d908101601f1916820160405261253f919081019061484d565b60006001600160a01b038216156129a2576040516370a0823160e01b81523060048201526001600160a01b038316906370a0823190602401602060405180830381865afa158015612979573d6000803e3d6000fd5b505050506040513d601f19601f8201168201806040525081019061299d91906148d2565b6106de565b4792915050565b8251815181146129ed5760405162461bcd60e51b815260206004820152600f60248201526e0d8cadccee8d040dad2e6dac2e8c6d608b1b60448201526064016108d6565b60005b81811015612a3d57612a35858281518110612a0d57612a0d6146d4565b602002602001015185858481518110612a2857612a286146d4565b6020026020010151612a44565b6001016129f0565b5050505050565b80600003612a5157505050565b6001600160a01b038316612af4576000826001600160a01b03168260405160006040518083038185875af1925050503d8060008114612aac576040519150601f19603f3d011682016040523d82523d6000602084013e612ab1565b606091505b5050905080611c595760405162461bcd60e51b815260206004820152600f60248201526e195d1a081cd95b990819985a5b1959608a1b60448201526064016108d6565b612b086001600160a01b038416838361351b565b505050565b60606000612b1a836121f0565b60405163b64761f960e01b8152306004820152602481018290529091507f00000000000000000000000000000000000000000000000000000000000000006001600160a01b03169063b64761f990604401600060405180830381600087803b158015612b8557600080fd5b505af1158015612b99573d6000803e3d6000fd5b50505050612ba5610994565b612bb357612bb3308261356d565b6000612bbd611a77565b9050600085516001600160401b03811115612bda57612bda6146be565b604051908082528060200260200182016040528015612c03578160200160208202803683370190505b50935060005b8651811015612d5f576000612c37878381518110612c2957612c296146d4565b602002602001015185613705565b878481518110612c4957612c496146d4565b60200260200101819350828152505050612ca97f0000000000000000000000000000000000000000000000000000000000000000898481518110612c8f57612c8f6146d4565b6020026020010151888581518110612a2857612a286146d4565b612cb381846148eb565b9250878281518110612cc757612cc76146d4565b60200260200101516001600160a01b0316336001600160a01b03167f5d624aa9c148153ab3446c1b154f660ee7701e549fe9b62dab7171b1c80e6fa2898581518110612d1557612d156146d4565b6020026020010151898681518110612d2f57612d2f6146d4565b6020026020010151604051612d4e929190918252602082015260400190565b60405180910390a350600101612c09565b508015612db657612d6f81612ecc565b600c8054601090612d91908490600160801b90046001600160801b0316614927565b92506101000a8154816001600160801b0302191690836001600160801b031602179055505b50505092915050565b6000612dc9610994565b612e0e576109bb612df97f0000000000000000000000000000000000000000000000000000000000000000612924565b30600090815260208190526040902054613751565b6109bb7f0000000000000000000000000000000000000000000000000000000000000000612924565b6001600160a01b03811660009081526007602052604090208054600181018255905b50919050565b60006106de612e6c611e99565b8360405161190160f01b8152600281019290925260228201526042902090565b6000806000612e9d87878787613760565b91509150612eaa81613824565b5095945050505050565b6000818311612ec35781612ec5565b825b9392505050565b60006001600160801b03821115612ee257600080fd5b5090565b612eee610994565b15612efb57612efb611fc7565b612f058383613043565b612b08838361344d565b6000612ec5828461396e565b6001600160a01b038216612f715760405162461bcd60e51b815260206004820152601f60248201527f45524332303a206d696e7420746f20746865207a65726f20616464726573730060448201526064016108d6565b612f7d60008383612ee6565b612f868161398d565b60028054600090612fa19084906001600160f81b0316614947565b92506101000a8154816001600160f81b0302191690836001600160f81b0316021790555080600080846001600160a01b03166001600160a01b031681526020019081526020016000206000828254612ff991906148eb565b90915550506040518181526001600160a01b038316906000907fddf252ad1be2c89b69c2b068fc378daa952ba7f163c4a11628f55a4df523b3ef9060200160405180910390a35050565b60008061304e6139a3565b9150915081516000036130615750505050565b6001600160a01b0384161580159061308257506001600160a01b0384163014155b1561309257613092848383613b08565b6001600160a01b038316158015906130b357506001600160a01b0383163014155b15611c5957611c59838383613b08565b606060007f00000000000000000000000000000000000000000000000000000000000000006001600160a01b03166361d027b36040518163ffffffff1660e01b8152600401602060405180830381865afa158015613125573d6000803e3d6000fd5b505050506040513d601f19601f820116820180604052508101906131499190614721565b905060007f00000000000000000000000000000000000000000000000000000000000000006001600160a01b031663f5de2d1f6040518163ffffffff1660e01b8152600401602060405180830381865afa1580156131ab573d6000803e3d6000fd5b505050506040513d601f19601f820116820180604052508101906131cf91906148fe565b6001600160801b03169050600087516001600160401b038111156131f5576131f56146be565b60405190808252806020026020018201604052801561321e578160200160208202803683370190505b50935060005b8851811015613441576000600860008b8481518110613245576132456146d4565b60200260200101516001600160a01b03166001600160a01b0316815260200190815260200160002060008a6001600160a01b03166001600160a01b0316815260200190815260200160002060000160109054906101000a90046001600160801b03166001600160801b031690506000600860008c85815181106132ca576132ca6146d4565b6020908102919091018101516001600160a01b0390811683528282019390935260409182016000908120938e168152929052812080546001600160801b03938416600160801b0293169290921790915561332482866134b9565b90506133308183614754565b878481518110613342576133426146d4565b602002602001018181525050831580156133595750875b1561338757816133748c85815181106110d8576110d86146d4565b101561338757613382612896565b600193505b6133ab8b848151811061339c5761339c6146d4565b60200260200101518783612a44565b6133db8b84815181106133c0576133c06146d4565b60200260200101518a898681518110612a2857612a286146d4565b8a83815181106133ed576133ed6146d4565b60200260200101516001600160a01b03167f880a48d40a6133941abdcfabd5c5f9a791b1e6c8afd23138c5a36e3d950392228260405161342f91815260200190565b60405180910390a25050600101613224565b50505050949350505050565b6000613457613d38565b90506001600160a01b0383161580159061347a57506001600160a01b0383163014155b15613489576134898382613d5f565b6001600160a01b038216158015906134aa57506001600160a01b0382163014155b15612b0857612b088282613d5f565b6000806134c68385614967565b9050670de0b6b3a7640000815b04949350505050565b606060006134e983613eeb565b604080516020808252818301909252919250600091906020820181803683375050509182525060208101929092525090565b604080516001600160a01b038416602482015260448082018490528251808303909101815260649091019091526020810180516001600160e01b031663a9059cbb60e01b179052612b08908490613f13565b6001600160a01b0382166135cd5760405162461bcd60e51b815260206004820152602160248201527f45524332303a206275726e2066726f6d20746865207a65726f206164647265736044820152607360f81b60648201526084016108d6565b6135d982600083612ee6565b6001600160a01b0382166000908152602081905260409020548181101561364d5760405162461bcd60e51b815260206004820152602260248201527f45524332303a206275726e20616d6f756e7420657863656564732062616c616e604482015261636560f01b60648201526084016108d6565b6001600160a01b038316600090815260208190526040902082820390556136738261398d565b6002805460009061368e9084906001600160f81b0316614994565b92506101000a8154816001600160f81b0302191690836001600160f81b0316021790555060006001600160a01b0316836001600160a01b03167fddf252ad1be2c89b69c2b068fc378daa952ba7f163c4a11628f55a4df523b3ef846040516136f891815260200190565b60405180910390a3505050565b6000806137128385613fe8565b915061371c610994565b1561374a57600c5460009061373a906001600160801b031686613fe8565b90506137468382614754565b9150505b9250929050565b6000818310612ec35781612ec5565b6000807f7fffffffffffffffffffffffffffffff5d576e7357a4501ddfe92f46681b20a0831115613797575060009050600361381b565b6040805160008082526020820180845289905260ff881692820192909252606081018690526080810185905260019060a0016020604051602081039080840390855afa1580156137eb573d6000803e3d6000fd5b5050604051601f1901519150506001600160a01b0381166138145760006001925092505061381b565b9150600090505b94509492505050565b6000816004811115613838576138386149b4565b036138405750565b6001816004811115613854576138546149b4565b036138a15760405162461bcd60e51b815260206004820152601860248201527f45434453413a20696e76616c6964207369676e6174757265000000000000000060448201526064016108d6565b60028160048111156138b5576138b56149b4565b036139025760405162461bcd60e51b815260206004820152601f60248201527f45434453413a20696e76616c6964207369676e6174757265206c656e6774680060448201526064016108d6565b6003816004811115613916576139166149b4565b0361253f5760405162461bcd60e51b815260206004820152602260248201527f45434453413a20696e76616c6964207369676e6174757265202773272076616c604482015261756560f01b60648201526084016108d6565b6000670de0b6b3a76400006139838484614967565b612ec591906149ca565b60006001600160f81b03821115612ee257600080fd5b6060806139ae611492565b91506139b8610994565b15613a7a5781516001600160401b038111156139d6576139d66146be565b6040519080825280602002602001820160405280156139ff578160200160208202803683370190505b50905060005b8251811015613a7557600c6001016000848381518110613a2757613a276146d4565b60200260200101516001600160a01b03166001600160a01b0316815260200190815260200160002054828281518110613a6257613a626146d4565b6020908102919091010152600101613a05565b509091565b7f00000000000000000000000000000000000000000000000000000000000000006001600160a01b031663f8b2f9916040518163ffffffff1660e01b81526004016000604051808303816000875af1158015613ada573d6000803e3d6000fd5b505050506040513d6000823e601f3d908101601f19168201604052613b02919081019061484d565b90509091565b6001600160a01b03831615801590613b2957506001600160a01b0383163014155b613b3557613b356149ec565b6000613b4084613ffd565b905060005b8351811015612a3d576000848281518110613b6257613b626146d4565b602002602001015190506000848381518110613b8057613b806146d4565b6020908102919091018101516001600160a01b038085166000908152600884526040808220928c168252919093528220549092506001600160801b031690819003613bdb57613bcf6001612ecc565b6001600160801b031690505b818103613bea57505050613d30565b6000613bf68284614754565b90506000613c0487836134b9565b6001600160a01b038681166000908152600860209081526040808320938f1683529290529081205491925090613c4b908390600160801b90046001600160801b03166148eb565b90506040518060400160405280613c6187612ecc565b6001600160801b03168152602001613c7883612ecc565b6001600160801b031681525060086000886001600160a01b03166001600160a01b0316815260200190815260200160002060008d6001600160a01b03166001600160a01b0316815260200190815260200160002060008201518160000160006101000a8154816001600160801b0302191690836001600160801b0316021790555060208201518160000160106101000a8154816001600160801b0302191690836001600160801b031602179055509050505050505050505b600101613b45565b6000613d42610994565b15613d575750600c546001600160801b031690565b6109bb611a77565b6001600160a01b03821615801590613d8057506001600160a01b0382163014155b613d8c57613d8c6149ec565b6001600160a01b0382166000908152600960205260409020546001600160801b0316818103613dba57505050565b80600003613e0757613dcb82612ecc565b6001600160a01b0393909316600090815260096020526040902080546001600160801b0319166001600160801b03909416939093179092555050565b6000613e128461407a565b90506000613e3d613e238585614967565b613e2d8587614754565b613e379085614967565b90614098565b9050613e4881612ecc565b6001600160a01b03861660009081526009602052604090208054601090613e80908490600160801b90046001600160801b0316614927565b92506101000a8154816001600160801b0302191690836001600160801b03160217905550613ead84612ecc565b6001600160a01b0395909516600090815260096020526040902080546001600160801b0319166001600160801b039096169590951790945550505050565b600060ff8216601f8111156106de57604051632cd44ac360e21b815260040160405180910390fd5b6000613f68826040518060400160405280602081526020017f5361666545524332303a206c6f772d6c6576656c2063616c6c206661696c6564815250856001600160a01b03166140be9092919063ffffffff16565b9050805160001480613f89575080806020019051810190613f899190614a02565b612b085760405162461bcd60e51b815260206004820152602a60248201527f5361666545524332303a204552433230206f7065726174696f6e20646964206e6044820152691bdd081cdd58d8d9595960b21b60648201526084016108d6565b600082613983670de0b6b3a764000084614967565b6001600160a01b0381166000908152600960205260408120546001600160801b031680820361402f5750600092915050565b6001600160a01b0383166000908152600960209081526040808320549183905290912054600160801b9091046001600160801b031690614070908390613fe8565b612ec591906148eb565b6001600160a01b0381166000908152602081905260408120546106de565b6000806140ad670de0b6b3a764000085614967565b90508281816134d3576134d361497e565b6060612669848460008585600080866001600160a01b031685876040516140e59190614a1f565b60006040518083038185875af1925050503d8060008114614122576040519150601f19603f3d011682016040523d82523d6000602084013e614127565b606091505b509150915061413887838387614143565b979650505050505050565b606083156141b25782516000036141ab576001600160a01b0385163b6141ab5760405162461bcd60e51b815260206004820152601d60248201527f416464726573733a2063616c6c20746f206e6f6e2d636f6e747261637400000060448201526064016108d6565b5081612669565b61266983838151156141c75781518083602001fd5b8060405162461bcd60e51b81526004016108d69190614231565b60005b838110156141fc5781810151838201526020016141e4565b50506000910152565b6000815180845261421d8160208601602086016141e1565b601f01601f19169290920160200192915050565b602081526000612ec56020830184614205565b6001600160a01b038116811461253f57600080fd5b6000806040838503121561426c57600080fd5b823561427781614244565b946020939093013593505050565b60008151808452602080850194506020840160005b838110156142b65781518752958201959082019060010161429a565b509495945050505050565b8481528360208201526080604082015260006142e06080830185614285565b82810360608401526141388185614285565b60008060006060848603121561430757600080fd5b833561431281614244565b9250602084013561432281614244565b929592945050506040919091013590565b60008083601f84011261434557600080fd5b5081356001600160401b0381111561435c57600080fd5b6020830191508360208260051b850101111561374a57600080fd5b6000806000806000806060878903121561439057600080fd5b86356001600160401b03808211156143a757600080fd5b6143b38a838b01614333565b909850965060208901359150808211156143cc57600080fd5b6143d88a838b01614333565b909650945060408901359150808211156143f157600080fd5b506143fe89828a01614333565b979a9699509497509295939492505050565b602081526000612ec56020830184614285565b6000806040838503121561443657600080fd5b823561444181614244565b9150602083013561445181614244565b809150509250929050565b60006020828403121561446e57600080fd5b8135612ec581614244565b801515811461253f57600080fd5b60008060006060848603121561449c57600080fd5b83356144a781614244565b925060208401356144b781614479565b915060408401356144c781614479565b809150509250925092565b8281526040602082015260006126696040830184614285565b60ff60f81b8816815260e06020820152600061450a60e0830189614205565b828103604084015261451c8189614205565b606084018890526001600160a01b038716608085015260a0840186905283810360c0850152905061454d8185614285565b9a9950505050505050505050565b6000806000806040858703121561457157600080fd5b84356001600160401b038082111561458857600080fd5b61459488838901614333565b909650945060208701359150808211156145ad57600080fd5b506145ba87828801614333565b95989497509550505050565b6020808252825182820181905260009190848201906040850190845b818110156146075783516001600160a01b0316835292840192918401916001016145e2565b50909695505050505050565b600080600080600080600060e0888a03121561462e57600080fd5b873561463981614244565b9650602088013561464981614244565b95506040880135945060608801359350608088013560ff8116811461466d57600080fd5b9699959850939692959460a0840135945060c09093013592915050565b600181811c9082168061469e57607f821691505b602082108103612e5957634e487b7160e01b600052602260045260246000fd5b634e487b7160e01b600052604160045260246000fd5b634e487b7160e01b600052603260045260246000fd5b6020808252601f908201527f5265656e7472616e637947756172643a207265656e7472616e742063616c6c00604082015260600190565b60006020828403121561473357600080fd5b8151612ec581614244565b634e487b7160e01b600052601160045260246000fd5b818103818111156106de576106de61473e565b604051601f8201601f191681016001600160401b038111828210171561478f5761478f6146be565b604052919050565b60006001600160401b038211156147b0576147b06146be565b5060051b60200190565b600060208083850312156147cd57600080fd5b82516001600160401b038111156147e357600080fd5b8301601f810185136147f457600080fd5b805161480761480282614797565b614767565b81815260059190911b8201830190838101908783111561482657600080fd5b928401925b8284101561413857835161483e81614244565b8252928401929084019061482b565b6000602080838503121561486057600080fd5b82516001600160401b0381111561487657600080fd5b8301601f8101851361488757600080fd5b805161489561480282614797565b81815260059190911b820183019083810190878311156148b457600080fd5b928401925b82841015614138578351825292840192908401906148b9565b6000602082840312156148e457600080fd5b5051919050565b808201808211156106de576106de61473e565b60006020828403121561491057600080fd5b81516001600160801b0381168114612ec557600080fd5b6001600160801b0381811683821601908082111561222d5761222d61473e565b6001600160f81b0381811683821601908082111561222d5761222d61473e565b80820281158282048414176106de576106de61473e565b634e487b7160e01b600052601260045260246000fd5b6001600160f81b0382811682821603908082111561222d5761222d61473e565b634e487b7160e01b600052602160045260246000fd5b6000826149e757634e487b7160e01b600052601260045260246000fd5b500490565b634e487b7160e01b600052600160045260246000fd5b600060208284031215614a1457600080fd5b8151612ec581614479565b60008251614a318184602087016141e1565b919091019291505056fea2646970667358221220333b4b39072770427b84a0cd9664175f380926363784a227cad96bead46ae28b64736f6c63430008180033","linkReferences":{}},"methodIdentifiers":{"DOMAIN_SEPARATOR()":"3644e515","PT()":"d94073d4","SY()":"afd27bf5","allowance(address,address)":"dd62ed3e","approve(address,uint256)":"095ea7b3","balanceOf(address)":"70a08231","decimals()":"313ce567","doCacheIndexSameBlock()":"516399df","eip712Domain()":"84b0196e","expiry()":"e184c9be","factory()":"c45a0155","getPostExpiryData()":"0b49fcef","getRewardTokens()":"c4f59f9b","isExpired()":"2f13b60c","mintPY(address,address)":"db74aa15","mintPYMulti(address[],address[],uint256[])":"53335819","name()":"06fdde03","nonces(address)":"7ecebe00","permit(address,address,uint256,uint256,uint8,bytes32,bytes32)":"d505accf","postExpiry()":"0a2b83a7","pyIndexCurrent()":"1d52edc4","pyIndexLastUpdatedBlock()":"60e0a9e1","pyIndexStored()":"d2a3584e","redeemDueInterestAndRewards(address,bool,bool)":"7d24da4d","redeemInterestAndRewardsPostExpiryForTreasury()":"acc5da4c","redeemPY(address)":"bcb7ea5d","redeemPYMulti(address[],uint256[])":"b0d88981","rewardIndexesCurrent()":"f8b2f991","setPostExpiryData()":"cdbb0361","syReserve()":"4ba6dcd7","symbol()":"95d89b41","totalSupply()":"18160ddd","transfer(address,uint256)":"a9059cbb","transferFrom(address,address,uint256)":"23b872dd","userInterest(address)":"d68076c3","userReward(address,address)":"5cbadbe4"},"id":23}