{"abi":[{"type":"constructor","inputs":[{"name":"startingIndex_","type":"uint256","internalType":"uint256"},{"name":"mintPrice_","type":"uint256","internalType":"uint256"}],"stateMutability":"nonpayable"},{"type":"receive","stateMutability":"payable"},{"type":"function","name":"approve","inputs":[{"name":"to","type":"address","internalType":"address"},{"name":"tokenId","type":"uint256","internalType":"uint256"}],"outputs":[],"stateMutability":"nonpayable"},{"type":"function","name":"balanceOf","inputs":[{"name":"owner","type":"address","internalType":"address"}],"outputs":[{"name":"","type":"uint256","internalType":"uint256"}],"stateMutability":"view"},{"type":"function","name":"currentIndex","inputs":[],"outputs":[{"name":"","type":"uint256","internalType":"uint256"}],"stateMutability":"view"},{"type":"function","name":"getApproved","inputs":[{"name":"tokenId","type":"uint256","internalType":"uint256"}],"outputs":[{"name":"","type":"address","internalType":"address"}],"stateMutability":"view"},{"type":"function","name":"getCurrentIndex","inputs":[],"outputs":[{"name":"","type":"uint256","internalType":"uint256"}],"stateMutability":"view"},{"type":"function","name":"isApprovedForAll","inputs":[{"name":"owner","type":"address","internalType":"address"},{"name":"operator","type":"address","internalType":"address"}],"outputs":[{"name":"","type":"bool","internalType":"bool"}],"stateMutability":"view"},{"type":"function","name":"mint","inputs":[{"name":"to","type":"address","internalType":"address"}],"outputs":[],"stateMutability":"payable"},{"type":"function","name":"mintPrice","inputs":[],"outputs":[{"name":"","type":"uint256","internalType":"uint256"}],"stateMutability":"view"},{"type":"function","name":"name","inputs":[],"outputs":[{"name":"","type":"string","internalType":"string"}],"stateMutability":"view"},{"type":"function","name":"owner","inputs":[],"outputs":[{"name":"","type":"address","internalType":"address"}],"stateMutability":"view"},{"type":"function","name":"ownerOf","inputs":[{"name":"tokenId","type":"uint256","internalType":"uint256"}],"outputs":[{"name":"","type":"address","internalType":"address"}],"stateMutability":"view"},{"type":"function","name":"renounceOwnership","inputs":[],"outputs":[],"stateMutability":"nonpayable"},{"type":"function","name":"safeTransferFrom","inputs":[{"name":"from","type":"address","internalType":"address"},{"name":"to","type":"address","internalType":"address"},{"name":"tokenId","type":"uint256","internalType":"uint256"}],"outputs":[],"stateMutability":"nonpayable"},{"type":"function","name":"safeTransferFrom","inputs":[{"name":"from","type":"address","internalType":"address"},{"name":"to","type":"address","internalType":"address"},{"name":"tokenId","type":"uint256","internalType":"uint256"},{"name":"data","type":"bytes","internalType":"bytes"}],"outputs":[],"stateMutability":"nonpayable"},{"type":"function","name":"setApprovalForAll","inputs":[{"name":"operator","type":"address","internalType":"address"},{"name":"approved","type":"bool","internalType":"bool"}],"outputs":[],"stateMutability":"nonpayable"},{"type":"function","name":"setMintPrice","inputs":[{"name":"newMintPrice_","type":"uint256","internalType":"uint256"}],"outputs":[],"stateMutability":"nonpayable"},{"type":"function","name":"supportsInterface","inputs":[{"name":"interfaceId","type":"bytes4","internalType":"bytes4"}],"outputs":[{"name":"","type":"bool","internalType":"bool"}],"stateMutability":"view"},{"type":"function","name":"symbol","inputs":[],"outputs":[{"name":"","type":"string","internalType":"string"}],"stateMutability":"view"},{"type":"function","name":"tokenURI","inputs":[{"name":"tokenId","type":"uint256","internalType":"uint256"}],"outputs":[{"name":"","type":"string","internalType":"string"}],"stateMutability":"view"},{"type":"function","name":"totalSupply","inputs":[],"outputs":[{"name":"","type":"uint256","internalType":"uint256"}],"stateMutability":"view"},{"type":"function","name":"transferFrom","inputs":[{"name":"from","type":"address","internalType":"address"},{"name":"to","type":"address","internalType":"address"},{"name":"tokenId","type":"uint256","internalType":"uint256"}],"outputs":[],"stateMutability":"nonpayable"},{"type":"function","name":"transferOwnership","inputs":[{"name":"newOwner","type":"address","internalType":"address"}],"outputs":[],"stateMutability":"nonpayable"},{"type":"function","name":"withdraw","inputs":[{"name":"to","type":"address","internalType":"address"}],"outputs":[],"stateMutability":"nonpayable"},{"type":"event","name":"Approval","inputs":[{"name":"owner","type":"address","indexed":true,"internalType":"address"},{"name":"approved","type":"address","indexed":true,"internalType":"address"},{"name":"tokenId","type":"uint256","indexed":true,"internalType":"uint256"}],"anonymous":false},{"type":"event","name":"ApprovalForAll","inputs":[{"name":"owner","type":"address","indexed":true,"internalType":"address"},{"name":"operator","type":"address","indexed":true,"internalType":"address"},{"name":"approved","type":"bool","indexed":false,"internalType":"bool"}],"anonymous":false},{"type":"event","name":"Mint","inputs":[{"name":"minter","type":"address","indexed":true,"internalType":"address"},{"name":"nftId","type":"uint256","indexed":false,"internalType":"uint256"}],"anonymous":false},{"type":"event","name":"OwnershipTransferred","inputs":[{"name":"previousOwner","type":"address","indexed":true,"internalType":"address"},{"name":"newOwner","type":"address","indexed":true,"internalType":"address"}],"anonymous":false},{"type":"event","name":"Transfer","inputs":[{"name":"from","type":"address","indexed":true,"internalType":"address"},{"name":"to","type":"address","indexed":true,"internalType":"address"},{"name":"tokenId","type":"uint256","indexed":true,"internalType":"uint256"}],"anonymous":false},{"type":"event","name":"Withdrawal","inputs":[{"name":"withdrawer","type":"address","indexed":true,"internalType":"address"},{"name":"amount","type":"uint256","indexed":false,"internalType":"uint256"}],"anonymous":false},{"type":"error","name":"InvalidPayableAmount","inputs":[{"name":"amount","type":"uint256","internalType":"uint256"}]},{"type":"error","name":"WithdrawalFailed","inputs":[]}],"bytecode":{"object":"0x60806040523480156200001157600080fd5b5060405162001a6d38038062001a6d83398101604081905262000034916200011a565b6040518060400160405280600d81526020016c4d696368694261636b7061636b60981b815250604051806040016040528060058152602001644d4943484960d81b8152508160009081620000899190620001e6565b506001620000988282620001e6565b505050620000b5620000af620000c460201b60201c565b620000c8565b600791909155600955620002b2565b3390565b600680546001600160a01b038381166001600160a01b0319831681179093556040519116919082907f8be0079c531659141344cd1fd0a4f28419497f9722a3daafe3b4186f6b6457e090600090a35050565b600080604083850312156200012e57600080fd5b505080516020909101519092909150565b634e487b7160e01b600052604160045260246000fd5b600181811c908216806200016a57607f821691505b6020821081036200018b57634e487b7160e01b600052602260045260246000fd5b50919050565b601f821115620001e1576000816000526020600020601f850160051c81016020861015620001bc5750805b601f850160051c820191505b81811015620001dd57828155600101620001c8565b5050505b505050565b81516001600160401b038111156200020257620002026200013f565b6200021a8162000213845462000155565b8462000191565b602080601f831160018114620002525760008415620002395750858301515b600019600386901b1c1916600185901b178555620001dd565b600085815260208120601f198616915b82811015620002835788860151825594840194600190910190840162000262565b5085821015620002a25787850151600019600388901b60f8161c191681555b5050505050600190811b01905550565b6117ab80620002c26000396000f3fe6080604052600436106101445760003560e01c80636817c76c116100b6578063a22cb4651161006f578063a22cb4651461035d578063b88d4fde1461037d578063c87b56dd1461039d578063e985e9c5146103bd578063f2fde38b14610406578063f4a0a5281461042657600080fd5b80636817c76c146102cc5780636a627842146102e257806370a08231146102f5578063715018a6146103155780638da5cb5b1461032a57806395d89b411461034857600080fd5b806318160ddd1161010857806318160ddd1461022057806323b872dd1461023657806326987b601461025657806342842e0e1461026c57806351cff8d91461028c5780636352211e146102ac57600080fd5b806301ffc9a71461015057806306fdde0314610185578063081812fc146101a7578063095ea7b3146101df5780630d9005ae1461020157600080fd5b3661014b57005b600080fd5b34801561015c57600080fd5b5061017061016b366004611310565b610446565b60405190151581526020015b60405180910390f35b34801561019157600080fd5b5061019a610498565b60405161017c919061137d565b3480156101b357600080fd5b506101c76101c2366004611390565b61052a565b6040516001600160a01b03909116815260200161017c565b3480156101eb57600080fd5b506101ff6101fa3660046113c5565b610551565b005b34801561020d57600080fd5b506007545b60405190815260200161017c565b34801561022c57600080fd5b5061021260085481565b34801561024257600080fd5b506101ff6102513660046113ef565b61066b565b34801561026257600080fd5b5061021260075481565b34801561027857600080fd5b506101ff6102873660046113ef565b61069c565b34801561029857600080fd5b506101ff6102a736600461142b565b6106b7565b3480156102b857600080fd5b506101c76102c7366004611390565b61076d565b3480156102d857600080fd5b5061021260095481565b6101ff6102f036600461142b565b6107cd565b34801561030157600080fd5b5061021261031036600461142b565b61086f565b34801561032157600080fd5b506101ff6108f5565b34801561033657600080fd5b506006546001600160a01b03166101c7565b34801561035457600080fd5b5061019a610909565b34801561036957600080fd5b506101ff610378366004611446565b610918565b34801561038957600080fd5b506101ff610398366004611498565b610927565b3480156103a957600080fd5b5061019a6103b8366004611390565b61095f565b3480156103c957600080fd5b506101706103d8366004611574565b6001600160a01b03918216600090815260056020908152604080832093909416825291909152205460ff1690565b34801561041257600080fd5b506101ff61042136600461142b565b6109d3565b34801561043257600080fd5b506101ff610441366004611390565b610a4c565b60006001600160e01b031982166380ac58cd60e01b148061047757506001600160e01b03198216635b5e139f60e01b145b8061049257506301ffc9a760e01b6001600160e01b03198316145b92915050565b6060600080546104a7906115a7565b80601f01602080910402602001604051908101604052809291908181526020018280546104d3906115a7565b80156105205780601f106104f557610100808354040283529160200191610520565b820191906000526020600020905b81548152906001019060200180831161050357829003601f168201915b5050505050905090565b600061053582610a59565b506000908152600460205260409020546001600160a01b031690565b600061055c8261076d565b9050806001600160a01b0316836001600160a01b0316036105ce5760405162461bcd60e51b815260206004820152602160248201527f4552433732313a20617070726f76616c20746f2063757272656e74206f776e656044820152603960f91b60648201526084015b60405180910390fd5b336001600160a01b03821614806105ea57506105ea81336103d8565b61065c5760405162461bcd60e51b815260206004820152603d60248201527f4552433732313a20617070726f76652063616c6c6572206973206e6f7420746f60448201527f6b656e206f776e6572206f7220617070726f76656420666f7220616c6c00000060648201526084016105c5565b6106668383610ab8565b505050565b6106753382610b26565b6106915760405162461bcd60e51b81526004016105c5906115e1565b610666838383610ba5565b61066683838360405180602001604052806000815250610927565b6106bf610d09565b60405147906000906001600160a01b0384169083908381818185875af1925050503d806000811461070c576040519150601f19603f3d011682016040523d82523d6000602084013e610711565b606091505b5050905080610733576040516327fcd9d160e01b815260040160405180910390fd5b60405182815233907f7fcf532c15f0a6db0bd6d0e038bea71d30d808c7d98cb3bf7268a95bf5081b659060200160405180910390a2505050565b6000818152600260205260408120546001600160a01b0316806104925760405162461bcd60e51b8152602060048201526018602482015277115490cdcc8c4e881a5b9d985b1a59081d1bdad95b88125160421b60448201526064016105c5565b60095434146107f157604051634cd13d6b60e01b81523460048201526024016105c5565b6107fd81600754610d63565b806001600160a01b03167f0f6798a560793a54c3bcfe86a93cde1e73087d944c0ea20544137d412139688560075460405161083a91815260200190565b60405180910390a2600780549060006108528361162e565b9091555050600880549060006108678361162e565b919050555050565b60006001600160a01b0382166108d95760405162461bcd60e51b815260206004820152602960248201527f4552433732313a2061646472657373207a65726f206973206e6f7420612076616044820152683634b21037bbb732b960b91b60648201526084016105c5565b506001600160a01b031660009081526003602052604090205490565b6108fd610d09565b6109076000610d7d565b565b6060600180546104a7906115a7565b610923338383610dcf565b5050565b6109313383610b26565b61094d5760405162461bcd60e51b81526004016105c5906115e1565b61095984848484610e9d565b50505050565b606061096a82610a59565b600061098160408051602081019091526000815290565b905060008151116109a157604051806020016040528060008152506109cc565b806109ab84610ed0565b6040516020016109bc929190611655565b6040516020818303038152906040525b9392505050565b6109db610d09565b6001600160a01b038116610a405760405162461bcd60e51b815260206004820152602660248201527f4f776e61626c653a206e6577206f776e657220697320746865207a65726f206160448201526564647265737360d01b60648201526084016105c5565b610a4981610d7d565b50565b610a54610d09565b600955565b6000818152600260205260409020546001600160a01b0316610a495760405162461bcd60e51b8152602060048201526018602482015277115490cdcc8c4e881a5b9d985b1a59081d1bdad95b88125160421b60448201526064016105c5565b600081815260046020526040902080546001600160a01b0319166001600160a01b0384169081179091558190610aed8261076d565b6001600160a01b03167f8c5be1e5ebec7d5bd14f71427d1e84f3dd0314c0f7b2291e5b200ac8c7c3b92560405160405180910390a45050565b600080610b328361076d565b9050806001600160a01b0316846001600160a01b03161480610b7957506001600160a01b0380821660009081526005602090815260408083209388168352929052205460ff165b80610b9d5750836001600160a01b0316610b928461052a565b6001600160a01b0316145b949350505050565b826001600160a01b0316610bb88261076d565b6001600160a01b031614610bde5760405162461bcd60e51b81526004016105c590611684565b6001600160a01b038216610c405760405162461bcd60e51b8152602060048201526024808201527f4552433732313a207472616e7366657220746f20746865207a65726f206164646044820152637265737360e01b60648201526084016105c5565b826001600160a01b0316610c538261076d565b6001600160a01b031614610c795760405162461bcd60e51b81526004016105c590611684565b600081815260046020908152604080832080546001600160a01b03199081169091556001600160a01b0387811680865260038552838620805460001901905590871680865283862080546001019055868652600290945282852080549092168417909155905184937fddf252ad1be2c89b69c2b068fc378daa952ba7f163c4a11628f55a4df523b3ef91a4505050565b6006546001600160a01b031633146109075760405162461bcd60e51b815260206004820181905260248201527f4f776e61626c653a2063616c6c6572206973206e6f7420746865206f776e657260448201526064016105c5565b610923828260405180602001604052806000815250610f63565b600680546001600160a01b038381166001600160a01b0319831681179093556040519116919082907f8be0079c531659141344cd1fd0a4f28419497f9722a3daafe3b4186f6b6457e090600090a35050565b816001600160a01b0316836001600160a01b031603610e305760405162461bcd60e51b815260206004820152601960248201527f4552433732313a20617070726f766520746f2063616c6c65720000000000000060448201526064016105c5565b6001600160a01b03838116600081815260056020908152604080832094871680845294825291829020805460ff191686151590811790915591519182527f17307eab39ab6107e8899845ad3d59bd9653f200f220920489ca2b5937696c31910160405180910390a3505050565b610ea8848484610ba5565b610eb484848484610f96565b6109595760405162461bcd60e51b81526004016105c5906116c9565b60606000610edd83611097565b600101905060008167ffffffffffffffff811115610efd57610efd611482565b6040519080825280601f01601f191660200182016040528015610f27576020820181803683370190505b5090508181016020015b600019016f181899199a1a9b1b9c1cb0b131b232b360811b600a86061a8153600a8504945084610f3157509392505050565b610f6d838361116f565b610f7a6000848484610f96565b6106665760405162461bcd60e51b81526004016105c5906116c9565b60006001600160a01b0384163b1561108c57604051630a85bd0160e11b81526001600160a01b0385169063150b7a0290610fda90339089908890889060040161171b565b6020604051808303816000875af1925050508015611015575060408051601f3d908101601f1916820190925261101291810190611758565b60015b611072573d808015611043576040519150601f19603f3d011682016040523d82523d6000602084013e611048565b606091505b50805160000361106a5760405162461bcd60e51b81526004016105c5906116c9565b805181602001fd5b6001600160e01b031916630a85bd0160e11b149050610b9d565b506001949350505050565b60008072184f03e93ff9f4daa797ed6e38ed64bf6a1f0160401b83106110d65772184f03e93ff9f4daa797ed6e38ed64bf6a1f0160401b830492506040015b6d04ee2d6d415b85acef81000000008310611102576d04ee2d6d415b85acef8100000000830492506020015b662386f26fc10000831061112057662386f26fc10000830492506010015b6305f5e1008310611138576305f5e100830492506008015b612710831061114c57612710830492506004015b6064831061115e576064830492506002015b600a83106104925760010192915050565b6001600160a01b0382166111c55760405162461bcd60e51b815260206004820181905260248201527f4552433732313a206d696e7420746f20746865207a65726f206164647265737360448201526064016105c5565b6000818152600260205260409020546001600160a01b03161561122a5760405162461bcd60e51b815260206004820152601c60248201527f4552433732313a20746f6b656e20616c7265616479206d696e7465640000000060448201526064016105c5565b6000818152600260205260409020546001600160a01b03161561128f5760405162461bcd60e51b815260206004820152601c60248201527f4552433732313a20746f6b656e20616c7265616479206d696e7465640000000060448201526064016105c5565b6001600160a01b038216600081815260036020908152604080832080546001019055848352600290915280822080546001600160a01b0319168417905551839291907fddf252ad1be2c89b69c2b068fc378daa952ba7f163c4a11628f55a4df523b3ef908290a45050565b6001600160e01b031981168114610a4957600080fd5b60006020828403121561132257600080fd5b81356109cc816112fa565b60005b83811015611348578181015183820152602001611330565b50506000910152565b6000815180845261136981602086016020860161132d565b601f01601f19169290920160200192915050565b6020815260006109cc6020830184611351565b6000602082840312156113a257600080fd5b5035919050565b80356001600160a01b03811681146113c057600080fd5b919050565b600080604083850312156113d857600080fd5b6113e1836113a9565b946020939093013593505050565b60008060006060848603121561140457600080fd5b61140d846113a9565b925061141b602085016113a9565b9150604084013590509250925092565b60006020828403121561143d57600080fd5b6109cc826113a9565b6000806040838503121561145957600080fd5b611462836113a9565b91506020830135801515811461147757600080fd5b809150509250929050565b634e487b7160e01b600052604160045260246000fd5b600080600080608085870312156114ae57600080fd5b6114b7856113a9565b93506114c5602086016113a9565b925060408501359150606085013567ffffffffffffffff808211156114e957600080fd5b818701915087601f8301126114fd57600080fd5b81358181111561150f5761150f611482565b604051601f8201601f19908116603f0116810190838211818310171561153757611537611482565b816040528281528a602084870101111561155057600080fd5b82602086016020830137600060208483010152809550505050505092959194509250565b6000806040838503121561158757600080fd5b611590836113a9565b915061159e602084016113a9565b90509250929050565b600181811c908216806115bb57607f821691505b6020821081036115db57634e487b7160e01b600052602260045260246000fd5b50919050565b6020808252602d908201527f4552433732313a2063616c6c6572206973206e6f7420746f6b656e206f776e6560408201526c1c881bdc88185c1c1c9bdd9959609a1b606082015260800190565b60006001820161164e57634e487b7160e01b600052601160045260246000fd5b5060010190565b6000835161166781846020880161132d565b83519083019061167b81836020880161132d565b01949350505050565b60208082526025908201527f4552433732313a207472616e736665722066726f6d20696e636f72726563742060408201526437bbb732b960d91b606082015260800190565b60208082526032908201527f4552433732313a207472616e7366657220746f206e6f6e20455243373231526560408201527131b2b4bb32b91034b6b83632b6b2b73a32b960711b606082015260800190565b6001600160a01b038581168252841660208201526040810183905260806060820181905260009061174e90830184611351565b9695505050505050565b60006020828403121561176a57600080fd5b81516109cc816112fa56fea2646970667358221220eb5cd541c78bd30946d7d84a8e246e0a9986874503001d3283607650b4430d9964736f6c63430008180033","linkReferences":{}},"methodIdentifiers":{"approve(address,uint256)":"095ea7b3","balanceOf(address)":"70a08231","currentIndex()":"26987b60","getApproved(uint256)":"081812fc","getCurrentIndex()":"0d9005ae","isApprovedForAll(address,address)":"e985e9c5","mint(address)":"6a627842","mintPrice()":"6817c76c","name()":"06fdde03","owner()":"8da5cb5b","ownerOf(uint256)":"6352211e","renounceOwnership()":"715018a6","safeTransferFrom(address,address,uint256)":"42842e0e","safeTransferFrom(address,address,uint256,bytes)":"b88d4fde","setApprovalForAll(address,bool)":"a22cb465","setMintPrice(uint256)":"f4a0a528","supportsInterface(bytes4)":"01ffc9a7","symbol()":"95d89b41","tokenURI(uint256)":"c87b56dd","totalSupply()":"18160ddd","transferFrom(address,address,uint256)":"23b872dd","transferOwnership(address)":"f2fde38b","withdraw(address)":"51cff8d9"},"id":89}