{"abi":[{"type":"function","name":"footer","inputs":[],"outputs":[{"name":"","type":"bytes","internalType":"bytes"}],"stateMutability":"view"},{"type":"function","name":"header","inputs":[],"outputs":[{"name":"","type":"bytes","internalType":"bytes"}],"stateMutability":"view"}],"bytecode":{"object":"0x61015a61003a600b82828239805160001a60731461002d57634e487b7160e01b600052600060045260246000fd5b30600052607381538281f3fe73000000000000000000000000000000000000000030146080604052600436106100405760003560e01c80630d7163c6146100455780633ce3018514610088575b600080fd5b6100726040518060400160405280600e81526020016d604380600d600039806000f3fe7360901b81525081565b60405161007f91906100a7565b60405180910390f35b6100726040518060600160405280602e81526020016100f7602e913981565b60006020808352835180602085015260005b818110156100d5578581018301518582016040015282016100b9565b506000604082860101526040601f19601f830116850101925050509291505056fe3314601d573d3dfd5b363d3d373d3d6014360360143d5160601c5af43d6000803e80603e573d6000fd5b3d6000f3a2646970667358221220c4639cde2a472f849b688eb729889ba79aff7ae2a5ed9c4a27b7461e53979b6f64736f6c63430008180033","linkReferences":{}},"methodIdentifiers":{"footer()":"3ce30185","header()":"0d7163c6"},"id":58}