{"abi":[{"type":"constructor","inputs":[{"name":"name_","type":"string","internalType":"string"},{"name":"symbol_","type":"string","internalType":"string"},{"name":"decimals_","type":"uint8","internalType":"uint8"}],"stateMutability":"nonpayable"},{"type":"function","name":"DOMAIN_SEPARATOR","inputs":[],"outputs":[{"name":"","type":"bytes32","internalType":"bytes32"}],"stateMutability":"view"},{"type":"function","name":"allowance","inputs":[{"name":"owner","type":"address","internalType":"address"},{"name":"spender","type":"address","internalType":"address"}],"outputs":[{"name":"","type":"uint256","internalType":"uint256"}],"stateMutability":"view"},{"type":"function","name":"approve","inputs":[{"name":"spender","type":"address","internalType":"address"},{"name":"amount","type":"uint256","internalType":"uint256"}],"outputs":[{"name":"","type":"bool","internalType":"bool"}],"stateMutability":"nonpayable"},{"type":"function","name":"balanceOf","inputs":[{"name":"account","type":"address","internalType":"address"}],"outputs":[{"name":"","type":"uint256","internalType":"uint256"}],"stateMutability":"view"},{"type":"function","name":"decimals","inputs":[],"outputs":[{"name":"","type":"uint8","internalType":"uint8"}],"stateMutability":"view"},{"type":"function","name":"eip712Domain","inputs":[],"outputs":[{"name":"fields","type":"bytes1","internalType":"bytes1"},{"name":"name","type":"string","internalType":"string"},{"name":"version","type":"string","internalType":"string"},{"name":"chainId","type":"uint256","internalType":"uint256"},{"name":"verifyingContract","type":"address","internalType":"address"},{"name":"salt","type":"bytes32","internalType":"bytes32"},{"name":"extensions","type":"uint256[]","internalType":"uint256[]"}],"stateMutability":"view"},{"type":"function","name":"name","inputs":[],"outputs":[{"name":"","type":"string","internalType":"string"}],"stateMutability":"view"},{"type":"function","name":"nonces","inputs":[{"name":"owner","type":"address","internalType":"address"}],"outputs":[{"name":"","type":"uint256","internalType":"uint256"}],"stateMutability":"view"},{"type":"function","name":"permit","inputs":[{"name":"owner","type":"address","internalType":"address"},{"name":"spender","type":"address","internalType":"address"},{"name":"value","type":"uint256","internalType":"uint256"},{"name":"deadline","type":"uint256","internalType":"uint256"},{"name":"v","type":"uint8","internalType":"uint8"},{"name":"r","type":"bytes32","internalType":"bytes32"},{"name":"s","type":"bytes32","internalType":"bytes32"}],"outputs":[],"stateMutability":"nonpayable"},{"type":"function","name":"symbol","inputs":[],"outputs":[{"name":"","type":"string","internalType":"string"}],"stateMutability":"view"},{"type":"function","name":"totalSupply","inputs":[],"outputs":[{"name":"","type":"uint256","internalType":"uint256"}],"stateMutability":"view"},{"type":"function","name":"transfer","inputs":[{"name":"to","type":"address","internalType":"address"},{"name":"amount","type":"uint256","internalType":"uint256"}],"outputs":[{"name":"","type":"bool","internalType":"bool"}],"stateMutability":"nonpayable"},{"type":"function","name":"transferFrom","inputs":[{"name":"from","type":"address","internalType":"address"},{"name":"to","type":"address","internalType":"address"},{"name":"amount","type":"uint256","internalType":"uint256"}],"outputs":[{"name":"","type":"bool","internalType":"bool"}],"stateMutability":"nonpayable"},{"type":"event","name":"Approval","inputs":[{"name":"owner","type":"address","indexed":true,"internalType":"address"},{"name":"spender","type":"address","indexed":true,"internalType":"address"},{"name":"value","type":"uint256","indexed":false,"internalType":"uint256"}],"anonymous":false},{"type":"event","name":"EIP712DomainChanged","inputs":[],"anonymous":false},{"type":"event","name":"Transfer","inputs":[{"name":"from","type":"address","indexed":true,"internalType":"address"},{"name":"to","type":"address","indexed":true,"internalType":"address"},{"name":"value","type":"uint256","indexed":false,"internalType":"uint256"}],"anonymous":false},{"type":"error","name":"InvalidShortString","inputs":[]},{"type":"error","name":"StringTooLong","inputs":[{"name":"str","type":"string","internalType":"string"}]}],"bytecode":{"object":"0x6101806040523480156200001257600080fd5b506040516200173d3803806200173d8339810160408190526200003591620002a0565b6040805180820190915260018152603160f81b602082015283908184846003620000608482620003b6565b5060046200006f8382620003b6565b5060ff166080525050600280546001600160f81b0316600160f81b1790556200009a8260056200014e565b61014052620000ab8160066200014e565b61016052815160208084019190912061010052815190820120610120524660c0526200013b6101005161012051604080517f8b73c3c69bb8fe3d512ecc4cf759cc79239f7b179b0ffacaa9a75d522b39400f60208201529081019290925260608201524660808201523060a082015260009060c00160405160208183030381529060405280519060200120905090565b60a05250503060e05250620004dc915050565b60006020835110156200016e57620001668362000187565b905062000181565b816200017b8482620003b6565b5060ff90505b92915050565b600080829050601f81511115620001be578260405163305a27a960e01b8152600401620001b5919062000482565b60405180910390fd5b8051620001cb82620004b7565b179392505050565b634e487b7160e01b600052604160045260246000fd5b60005b8381101562000206578181015183820152602001620001ec565b50506000910152565b600082601f8301126200022157600080fd5b81516001600160401b03808211156200023e576200023e620001d3565b604051601f8301601f19908116603f01168101908282118183101715620002695762000269620001d3565b816040528381528660208588010111156200028357600080fd5b62000296846020830160208901620001e9565b9695505050505050565b600080600060608486031215620002b657600080fd5b83516001600160401b0380821115620002ce57600080fd5b620002dc878388016200020f565b94506020860151915080821115620002f357600080fd5b5062000302868287016200020f565b925050604084015160ff811681146200031a57600080fd5b809150509250925092565b600181811c908216806200033a57607f821691505b6020821081036200035b57634e487b7160e01b600052602260045260246000fd5b50919050565b601f821115620003b1576000816000526020600020601f850160051c810160208610156200038c5750805b601f850160051c820191505b81811015620003ad5782815560010162000398565b5050505b505050565b81516001600160401b03811115620003d257620003d2620001d3565b620003ea81620003e3845462000325565b8462000361565b602080601f831160018114620004225760008415620004095750858301515b600019600386901b1c1916600185901b178555620003ad565b600085815260208120601f198616915b82811015620004535788860151825594840194600190910190840162000432565b5085821015620004725787850151600019600388901b60f8161c191681555b5050505050600190811b01905550565b6020815260008251806020840152620004a3816040850160208701620001e9565b601f01601f19169190910160400192915050565b805160208083015191908110156200035b5760001960209190910360031b1b16919050565b60805160a05160c05160e051610100516101205161014051610160516111fb620005426000396000610409015260006103de01526000610b2d01526000610b0501526000610a6001526000610a8a01526000610ab40152600061014801526111fb6000f3fe608060405234801561001057600080fd5b50600436106100cf5760003560e01c806370a082311161008c57806395d89b411161006657806395d89b41146101db578063a9059cbb146101e3578063d505accf146101f6578063dd62ed3e1461020b57600080fd5b806370a08231146101845780637ecebe00146101ad57806384b0196e146101c057600080fd5b806306fdde03146100d4578063095ea7b3146100f257806318160ddd1461011557806323b872dd14610130578063313ce567146101435780633644e5151461017c575b600080fd5b6100dc610244565b6040516100e99190610f64565b60405180910390f35b610105610100366004610f9a565b6102d6565b60405190151581526020016100e9565b6002546001600160f81b03165b6040519081526020016100e9565b61010561013e366004610fc4565b6102f0565b61016a7f000000000000000000000000000000000000000000000000000000000000000081565b60405160ff90911681526020016100e9565b6101226103a3565b610122610192366004611000565b6001600160a01b031660009081526020819052604090205490565b6101226101bb366004611000565b6103b2565b6101c86103d0565b6040516100e9979695949392919061101b565b6100dc610459565b6101056101f1366004610f9a565b610468565b6102096102043660046110b4565b61050a565b005b610122610219366004611127565b6001600160a01b03918216600090815260016020908152604080832093909416825291909152205490565b6060600380546102539061115a565b80601f016020809104026020016040519081016040528092919081815260200182805461027f9061115a565b80156102cc5780601f106102a1576101008083540402835291602001916102cc565b820191906000526020600020905b8154815290600101906020018083116102af57829003601f168201915b5050505050905090565b6000336102e481858561066e565b60019150505b92915050565b600254600090600119600160f81b90910460ff16016103565760405162461bcd60e51b815260206004820152601f60248201527f5265656e7472616e637947756172643a207265656e7472616e742063616c6c0060448201526064015b60405180910390fd5b600280546001600160f81b0316600160f91b17905533610377858285610792565b610382858585610824565b6001915050600280546001600160f81b0316600160f81b1790559392505050565b60006103ad610a53565b905090565b6001600160a01b0381166000908152600760205260408120546102ea565b6000606080828080836104047f00000000000000000000000000000000000000000000000000000000000000006005610b7e565b61042f7f00000000000000000000000000000000000000000000000000000000000000006006610b7e565b60408051600080825260208201909252600f60f81b9b939a50919850469750309650945092509050565b6060600480546102539061115a565b600254600090600119600160f81b90910460ff16016104c95760405162461bcd60e51b815260206004820152601f60248201527f5265656e7472616e637947756172643a207265656e7472616e742063616c6c00604482015260640161034d565b600280546001600160f81b0316600160f91b179055336104ea818585610824565b6001915050600280546001600160f81b0316600160f81b17905592915050565b8342111561055a5760405162461bcd60e51b815260206004820152601d60248201527f45524332305065726d69743a206578706972656420646561646c696e65000000604482015260640161034d565b60007f6e71edae12b1b97f4d1f60370fef10105fa2faae0126114a169c64845d6126c98888886105898c610c29565b6040805160208101969096526001600160a01b0394851690860152929091166060840152608083015260a082015260c0810186905260e00160405160208183030381529060405280519060200120905060006105e482610c51565b905060006105f482878787610c7e565b9050896001600160a01b0316816001600160a01b0316146106575760405162461bcd60e51b815260206004820152601e60248201527f45524332305065726d69743a20696e76616c6964207369676e61747572650000604482015260640161034d565b6106628a8a8a61066e565b50505050505050505050565b6001600160a01b0383166106d05760405162461bcd60e51b8152602060048201526024808201527f45524332303a20617070726f76652066726f6d20746865207a65726f206164646044820152637265737360e01b606482015260840161034d565b6001600160a01b0382166107315760405162461bcd60e51b815260206004820152602260248201527f45524332303a20617070726f766520746f20746865207a65726f206164647265604482015261737360f01b606482015260840161034d565b6001600160a01b0383811660008181526001602090815260408083209487168084529482529182902085905590518481527f8c5be1e5ebec7d5bd14f71427d1e84f3dd0314c0f7b2291e5b200ac8c7c3b925910160405180910390a3505050565b6001600160a01b03838116600090815260016020908152604080832093861683529290522054600019811461081e57818110156108115760405162461bcd60e51b815260206004820152601d60248201527f45524332303a20696e73756666696369656e7420616c6c6f77616e6365000000604482015260640161034d565b61081e848484840361066e565b50505050565b6001600160a01b0383166108885760405162461bcd60e51b815260206004820152602560248201527f45524332303a207472616e736665722066726f6d20746865207a65726f206164604482015264647265737360d81b606482015260840161034d565b6001600160a01b0382166108ea5760405162461bcd60e51b815260206004820152602360248201527f45524332303a207472616e7366657220746f20746865207a65726f206164647260448201526265737360e81b606482015260840161034d565b816001600160a01b0316836001600160a01b03160361094b5760405162461bcd60e51b815260206004820152601760248201527f45524332303a207472616e7366657220746f2073656c66000000000000000000604482015260640161034d565b6001600160a01b038316600090815260208190526040902054818110156109c35760405162461bcd60e51b815260206004820152602660248201527f45524332303a207472616e7366657220616d6f756e7420657863656564732062604482015265616c616e636560d01b606482015260840161034d565b6001600160a01b038085166000908152602081905260408082208585039055918516815290812080548492906109fa90849061118e565b92505081905550826001600160a01b0316846001600160a01b03167fddf252ad1be2c89b69c2b068fc378daa952ba7f163c4a11628f55a4df523b3ef84604051610a4691815260200190565b60405180910390a361081e565b6000306001600160a01b037f000000000000000000000000000000000000000000000000000000000000000016148015610aac57507f000000000000000000000000000000000000000000000000000000000000000046145b15610ad657507f000000000000000000000000000000000000000000000000000000000000000090565b6103ad604080517f8b73c3c69bb8fe3d512ecc4cf759cc79239f7b179b0ffacaa9a75d522b39400f60208201527f0000000000000000000000000000000000000000000000000000000000000000918101919091527f000000000000000000000000000000000000000000000000000000000000000060608201524660808201523060a082015260009060c00160405160208183030381529060405280519060200120905090565b606060ff8314610b9857610b9183610ca6565b90506102ea565b818054610ba49061115a565b80601f0160208091040260200160405190810160405280929190818152602001828054610bd09061115a565b8015610c1d5780601f10610bf257610100808354040283529160200191610c1d565b820191906000526020600020905b815481529060010190602001808311610c0057829003601f168201915b505050505090506102ea565b6001600160a01b03811660009081526007602052604090208054600181018255905b50919050565b60006102ea610c5e610a53565b8360405161190160f01b8152600281019290925260228201526042902090565b6000806000610c8f87878787610ce5565b91509150610c9c81610da9565b5095945050505050565b60606000610cb383610ef6565b604080516020808252818301909252919250600091906020820181803683375050509182525060208101929092525090565b6000807f7fffffffffffffffffffffffffffffff5d576e7357a4501ddfe92f46681b20a0831115610d1c5750600090506003610da0565b6040805160008082526020820180845289905260ff881692820192909252606081018690526080810185905260019060a0016020604051602081039080840390855afa158015610d70573d6000803e3d6000fd5b5050604051601f1901519150506001600160a01b038116610d9957600060019250925050610da0565b9150600090505b94509492505050565b6000816004811115610dbd57610dbd6111af565b03610dc55750565b6001816004811115610dd957610dd96111af565b03610e265760405162461bcd60e51b815260206004820152601860248201527f45434453413a20696e76616c6964207369676e61747572650000000000000000604482015260640161034d565b6002816004811115610e3a57610e3a6111af565b03610e875760405162461bcd60e51b815260206004820152601f60248201527f45434453413a20696e76616c6964207369676e6174757265206c656e67746800604482015260640161034d565b6003816004811115610e9b57610e9b6111af565b03610ef35760405162461bcd60e51b815260206004820152602260248201527f45434453413a20696e76616c6964207369676e6174757265202773272076616c604482015261756560f01b606482015260840161034d565b50565b600060ff8216601f8111156102ea57604051632cd44ac360e21b815260040160405180910390fd5b6000815180845260005b81811015610f4457602081850181015186830182015201610f28565b506000602082860101526020601f19601f83011685010191505092915050565b602081526000610f776020830184610f1e565b9392505050565b80356001600160a01b0381168114610f9557600080fd5b919050565b60008060408385031215610fad57600080fd5b610fb683610f7e565b946020939093013593505050565b600080600060608486031215610fd957600080fd5b610fe284610f7e565b9250610ff060208501610f7e565b9150604084013590509250925092565b60006020828403121561101257600080fd5b610f7782610f7e565b60ff60f81b881681526000602060e0602084015261103c60e084018a610f1e565b838103604085015261104e818a610f1e565b606085018990526001600160a01b038816608086015260a0850187905284810360c08601528551808252602080880193509091019060005b818110156110a257835183529284019291840191600101611086565b50909c9b505050505050505050505050565b600080600080600080600060e0888a0312156110cf57600080fd5b6110d888610f7e565b96506110e660208901610f7e565b95506040880135945060608801359350608088013560ff8116811461110a57600080fd5b9699959850939692959460a0840135945060c09093013592915050565b6000806040838503121561113a57600080fd5b61114383610f7e565b915061115160208401610f7e565b90509250929050565b600181811c9082168061116e57607f821691505b602082108103610c4b57634e487b7160e01b600052602260045260246000fd5b808201808211156102ea57634e487b7160e01b600052601160045260246000fd5b634e487b7160e01b600052602160045260246000fdfea2646970667358221220df3ef8eed263f16e57141f40135b67dcdbc87f9a43d155bdb6fcf39c3e6049a664736f6c63430008180033","linkReferences":{}},"methodIdentifiers":{"DOMAIN_SEPARATOR()":"3644e515","allowance(address,address)":"dd62ed3e","approve(address,uint256)":"095ea7b3","balanceOf(address)":"70a08231","decimals()":"313ce567","eip712Domain()":"84b0196e","name()":"06fdde03","nonces(address)":"7ecebe00","permit(address,address,uint256,uint256,uint8,bytes32,bytes32)":"d505accf","symbol()":"95d89b41","totalSupply()":"18160ddd","transfer(address,uint256)":"a9059cbb","transferFrom(address,address,uint256)":"23b872dd"},"id":25}