{"abi":[{"type":"constructor","inputs":[{"name":"entryPoint_","type":"address","internalType":"address"},{"name":"multicallForwarder","type":"address","internalType":"address"},{"name":"erc6551Registry","type":"address","internalType":"address"},{"name":"_guardian","type":"address","internalType":"address"}],"stateMutability":"nonpayable"},{"type":"fallback","stateMutability":"payable"},{"type":"receive","stateMutability":"payable"},{"type":"function","name":"entryPoint","inputs":[],"outputs":[{"name":"","type":"address","internalType":"contract IEntryPoint"}],"stateMutability":"view"},{"type":"function","name":"erc6551Registry","inputs":[],"outputs":[{"name":"","type":"address","internalType":"address"}],"stateMutability":"view"},{"type":"function","name":"execute","inputs":[{"name":"to","type":"address","internalType":"address"},{"name":"value","type":"uint256","internalType":"uint256"},{"name":"data","type":"bytes","internalType":"bytes"},{"name":"operation","type":"uint8","internalType":"uint8"}],"outputs":[{"name":"","type":"bytes","internalType":"bytes"}],"stateMutability":"payable"},{"type":"function","name":"executeBatch","inputs":[{"name":"operations","type":"tuple[]","internalType":"struct BatchExecutor.Operation[]","components":[{"name":"to","type":"address","internalType":"address"},{"name":"value","type":"uint256","internalType":"uint256"},{"name":"data","type":"bytes","internalType":"bytes"},{"name":"operation","type":"uint8","internalType":"uint8"}]}],"outputs":[{"name":"","type":"bytes[]","internalType":"bytes[]"}],"stateMutability":"payable"},{"type":"function","name":"executeNested","inputs":[{"name":"to","type":"address","internalType":"address"},{"name":"value","type":"uint256","internalType":"uint256"},{"name":"data","type":"bytes","internalType":"bytes"},{"name":"operation","type":"uint8","internalType":"uint8"},{"name":"proof","type":"tuple[]","internalType":"struct NestedAccountExecutor.ERC6551AccountInfo[]","components":[{"name":"salt","type":"bytes32","internalType":"bytes32"},{"name":"tokenContract","type":"address","internalType":"address"},{"name":"tokenId","type":"uint256","internalType":"uint256"}]}],"outputs":[{"name":"","type":"bytes","internalType":"bytes"}],"stateMutability":"payable"},{"type":"function","name":"extcall","inputs":[{"name":"to","type":"address","internalType":"address"},{"name":"value","type":"uint256","internalType":"uint256"},{"name":"data","type":"bytes","internalType":"bytes"}],"outputs":[{"name":"result","type":"bytes","internalType":"bytes"}],"stateMutability":"nonpayable"},{"type":"function","name":"extcreate","inputs":[{"name":"value","type":"uint256","internalType":"uint256"},{"name":"bytecode","type":"bytes","internalType":"bytes"}],"outputs":[{"name":"","type":"address","internalType":"address"}],"stateMutability":"nonpayable"},{"type":"function","name":"extcreate2","inputs":[{"name":"value","type":"uint256","internalType":"uint256"},{"name":"salt","type":"bytes32","internalType":"bytes32"},{"name":"bytecode","type":"bytes","internalType":"bytes"}],"outputs":[{"name":"","type":"address","internalType":"address"}],"stateMutability":"nonpayable"},{"type":"function","name":"extsload","inputs":[{"name":"slot","type":"bytes32","internalType":"bytes32"}],"outputs":[{"name":"value","type":"bytes32","internalType":"bytes32"}],"stateMutability":"view"},{"type":"function","name":"getNonce","inputs":[],"outputs":[{"name":"","type":"uint256","internalType":"uint256"}],"stateMutability":"view"},{"type":"function","name":"isLocked","inputs":[],"outputs":[{"name":"","type":"bool","internalType":"bool"}],"stateMutability":"view"},{"type":"function","name":"isTrustedForwarder","inputs":[{"name":"forwarder","type":"address","internalType":"address"}],"outputs":[{"name":"","type":"bool","internalType":"bool"}],"stateMutability":"view"},{"type":"function","name":"isValidSignature","inputs":[{"name":"hash","type":"bytes32","internalType":"bytes32"},{"name":"signature","type":"bytes","internalType":"bytes"}],"outputs":[{"name":"magicValue","type":"bytes4","internalType":"bytes4"}],"stateMutability":"view"},{"type":"function","name":"isValidSigner","inputs":[{"name":"signer","type":"address","internalType":"address"},{"name":"data","type":"bytes","internalType":"bytes"}],"outputs":[{"name":"magicValue","type":"bytes4","internalType":"bytes4"}],"stateMutability":"view"},{"type":"function","name":"lock","inputs":[{"name":"_lockedUntil","type":"uint256","internalType":"uint256"}],"outputs":[],"stateMutability":"nonpayable"},{"type":"function","name":"lockedUntil","inputs":[],"outputs":[{"name":"","type":"uint256","internalType":"uint256"}],"stateMutability":"view"},{"type":"function","name":"onERC1155BatchReceived","inputs":[{"name":"","type":"address","internalType":"address"},{"name":"","type":"address","internalType":"address"},{"name":"","type":"uint256[]","internalType":"uint256[]"},{"name":"","type":"uint256[]","internalType":"uint256[]"},{"name":"","type":"bytes","internalType":"bytes"}],"outputs":[{"name":"","type":"bytes4","internalType":"bytes4"}],"stateMutability":"nonpayable"},{"type":"function","name":"onERC1155Received","inputs":[{"name":"","type":"address","internalType":"address"},{"name":"","type":"address","internalType":"address"},{"name":"","type":"uint256","internalType":"uint256"},{"name":"","type":"uint256","internalType":"uint256"},{"name":"","type":"bytes","internalType":"bytes"}],"outputs":[{"name":"","type":"bytes4","internalType":"bytes4"}],"stateMutability":"nonpayable"},{"type":"function","name":"onERC721Received","inputs":[{"name":"","type":"address","internalType":"address"},{"name":"","type":"address","internalType":"address"},{"name":"tokenId","type":"uint256","internalType":"uint256"},{"name":"","type":"bytes","internalType":"bytes"}],"outputs":[{"name":"","type":"bytes4","internalType":"bytes4"}],"stateMutability":"nonpayable"},{"type":"function","name":"overrides","inputs":[{"name":"","type":"address","internalType":"address"},{"name":"","type":"bytes4","internalType":"bytes4"}],"outputs":[{"name":"","type":"address","internalType":"address"}],"stateMutability":"view"},{"type":"function","name":"owner","inputs":[],"outputs":[{"name":"","type":"address","internalType":"address"}],"stateMutability":"view"},{"type":"function","name":"permissions","inputs":[{"name":"","type":"address","internalType":"address"},{"name":"","type":"address","internalType":"address"}],"outputs":[{"name":"","type":"bool","internalType":"bool"}],"stateMutability":"view"},{"type":"function","name":"setOverrides","inputs":[{"name":"selectors","type":"bytes4[]","internalType":"bytes4[]"},{"name":"implementations","type":"address[]","internalType":"address[]"}],"outputs":[],"stateMutability":"nonpayable"},{"type":"function","name":"setPermissions","inputs":[{"name":"callers","type":"address[]","internalType":"address[]"},{"name":"_permissions","type":"bool[]","internalType":"bool[]"}],"outputs":[],"stateMutability":"nonpayable"},{"type":"function","name":"state","inputs":[],"outputs":[{"name":"","type":"uint256","internalType":"uint256"}],"stateMutability":"view"},{"type":"function","name":"supportsInterface","inputs":[{"name":"interfaceId","type":"bytes4","internalType":"bytes4"}],"outputs":[{"name":"","type":"bool","internalType":"bool"}],"stateMutability":"view"},{"type":"function","name":"token","inputs":[],"outputs":[{"name":"chainId","type":"uint256","internalType":"uint256"},{"name":"tokenContract","type":"address","internalType":"address"},{"name":"tokenId","type":"uint256","internalType":"uint256"}],"stateMutability":"view"},{"type":"function","name":"validateUserOp","inputs":[{"name":"userOp","type":"tuple","internalType":"struct UserOperation","components":[{"name":"sender","type":"address","internalType":"address"},{"name":"nonce","type":"uint256","internalType":"uint256"},{"name":"initCode","type":"bytes","internalType":"bytes"},{"name":"callData","type":"bytes","internalType":"bytes"},{"name":"callGasLimit","type":"uint256","internalType":"uint256"},{"name":"verificationGasLimit","type":"uint256","internalType":"uint256"},{"name":"preVerificationGas","type":"uint256","internalType":"uint256"},{"name":"maxFeePerGas","type":"uint256","internalType":"uint256"},{"name":"maxPriorityFeePerGas","type":"uint256","internalType":"uint256"},{"name":"paymasterAndData","type":"bytes","internalType":"bytes"},{"name":"signature","type":"bytes","internalType":"bytes"}]},{"name":"userOpHash","type":"bytes32","internalType":"bytes32"},{"name":"missingAccountFunds","type":"uint256","internalType":"uint256"}],"outputs":[{"name":"validationData","type":"uint256","internalType":"uint256"}],"stateMutability":"nonpayable"},{"type":"event","name":"LockUpdated","inputs":[{"name":"lockedUntil","type":"uint256","indexed":false,"internalType":"uint256"}],"anonymous":false},{"type":"event","name":"OverrideUpdated","inputs":[{"name":"owner","type":"address","indexed":false,"internalType":"address"},{"name":"selector","type":"bytes4","indexed":false,"internalType":"bytes4"},{"name":"implementation","type":"address","indexed":false,"internalType":"address"}],"anonymous":false},{"type":"event","name":"PermissionUpdated","inputs":[{"name":"owner","type":"address","indexed":false,"internalType":"address"},{"name":"caller","type":"address","indexed":false,"internalType":"address"},{"name":"hasPermission","type":"bool","indexed":false,"internalType":"bool"}],"anonymous":false},{"type":"error","name":"AccountLocked","inputs":[]},{"type":"error","name":"ContractCreationFailed","inputs":[]},{"type":"error","name":"ExceedsMaxLockTime","inputs":[]},{"type":"error","name":"InvalidAccountProof","inputs":[]},{"type":"error","name":"InvalidERC6551Registry","inputs":[]},{"type":"error","name":"InvalidEntryPoint","inputs":[]},{"type":"error","name":"InvalidInput","inputs":[]},{"type":"error","name":"InvalidMulticallForwarder","inputs":[]},{"type":"error","name":"InvalidOperation","inputs":[]},{"type":"error","name":"NotAuthorized","inputs":[]},{"type":"error","name":"OwnershipCycle","inputs":[]}],"bytecode":{"object":"0x6101206040523060a0523480156200001657600080fd5b5060405162003371380380620033718339810160408190526200003991620000fd565b82828181876001600160a01b0381166200006657604051632039d3c960e01b815260040160405180910390fd5b6001600160a01b03908116608052811662000093576040516246a29560e81b815260040160405180910390fd5b6001600160a01b0390811660c05290811660e0528216620000c75760405163754c753360e11b815260040160405180910390fd5b50506001600160a01b031661010052506200015a915050565b80516001600160a01b0381168114620000f857600080fd5b919050565b600080600080608085870312156200011457600080fd5b6200011f85620000e0565b93506200012f60208601620000e0565b92506200013f60408601620000e0565b91506200014f60608601620000e0565b905092959194509250565b60805160a05160c05160e051610100516131a8620001c9600039600061179701526000610eb9015260008181610239015281816109ee0152611f13015260008181610a0f0152611ef2015260008181610482015281816111a1015281816116e00152611b5e01526131a86000f3fe6080604052600436106101bb5760003560e01c8063572b6c05116100ec578063c19d93fb1161008a578063dd46706411610064578063dd46706414610526578063ee9c605414610546578063f23a6e6114610587578063fc0c546a146105a7576101ca565b8063c19d93fb146104e6578063ce0617ec146104fb578063d087d28814610511576101ca565b8063a4e2d634116100c6578063a4e2d6341461045c578063b0d691fe14610473578063b709467c146104a6578063bc197c81146104c6576101ca565b8063572b6c05146104075780637a8f7356146104275780638da5cb5b14610447576101ca565b80631fb1ecf01161015957806343629a731161013357806343629a731461039457806345a24e3e146103b457806351945447146103d4578063523e3260146103e7576101ca565b80631fb1ecf01461033457806334715fb1146103545780633a871cdd14610374576101ca565b8063150b7a0211610195578063150b7a02146102735780631626ba7e146102ac5780631e2eaeaf146102cc5780631f9838b5146102f9576101ca565b806301ffc9a7146101d2578063039721b114610207578063056d5afe14610227576101ca565b366101ca576101c86105df565b005b6101c86105df565b3480156101de57600080fd5b506101f26101ed3660046125d4565b6106e8565b60405190151581526020015b60405180910390f35b34801561021357600080fd5b506101c8610222366004612633565b610716565b34801561023357600080fd5b5061025b7f000000000000000000000000000000000000000000000000000000000000000081565b6040516001600160a01b0390911681526020016101fe565b34801561027f57600080fd5b5061029361028e366004612768565b6108fa565b6040516001600160e01b031990911681526020016101fe565b3480156102b857600080fd5b506102936102c7366004612814565b61096b565b3480156102d857600080fd5b506102eb6102e736600461285f565b5490565b6040519081526020016101fe565b34801561030557600080fd5b506101f2610314366004612878565b600260209081526000928352604080842090915290825290205460ff1681565b6103476103423660046128c2565b610996565b6040516101fe91906129e1565b34801561036057600080fd5b5061025b61036f3660046129f4565b610bfd565b34801561038057600080fd5b506102eb61038f366004612a3a565b610c1c565b6103a76103a2366004612a8d565b610c3b565b6040516101fe9190612ace565b3480156103c057600080fd5b5061025b6103cf366004612814565b610dc7565b6103476103e2366004612b32565b610e19565b3480156103f357600080fd5b50610293610402366004612ba2565b610e62565b34801561041357600080fd5b506101f2610422366004612bdd565b610eb7565b34801561043357600080fd5b506101c8610442366004612633565b610ee9565b34801561045357600080fd5b5061025b61110f565b34801561046857600080fd5b5060005442106101f2565b34801561047f57600080fd5b507f000000000000000000000000000000000000000000000000000000000000000061025b565b3480156104b257600080fd5b506103476104c1366004612bfa565b611136565b3480156104d257600080fd5b506102936104e1366004612cb1565b611181565b3480156104f257600080fd5b506003546102eb565b34801561050757600080fd5b506102eb60005481565b34801561051d57600080fd5b506102eb61119d565b34801561053257600080fd5b506101c861054136600461285f565b611236565b34801561055257600080fd5b5061025b610561366004612d5e565b60016020908152600092835260408084209091529082529020546001600160a01b031681565b34801561059357600080fd5b506102936105a2366004612d93565b61131d565b3480156105b357600080fd5b506105bc611339565b604080519384526001600160a01b039092166020840152908201526060016101fe565b60008060006105ec611351565b92509250925060006105ff84848461135f565b6001600160a01b0380821660009081526001602090815260408083206001600160e01b031984351684529091529020549192501680156106e15760006106443061137b565b9050600080826001600160a01b0316846000363360405160200161066b9493929190612dfb565b60408051601f198184030181529082905261068591612e39565b6000604051808303816000865af19150503d80600081146106c2576040519150601f19603f3d011682016040523d82523d6000602084013e6106c7565b606091505b5091509150816106d957805160208201fd5b805160208201f35b5050505050565b6000806106f4836113b6565b905080156107055750600192915050565b61070d6113db565b50600092915050565b6000806000610723611351565b925092509250600061073684848461135f565b90506001600160a01b03811661075f5760405163ea8e4eb560e01b815260040160405180910390fd5b336001600160a01b038216146107885760405163ea8e4eb560e01b815260040160405180910390fd5b61079061148e565b868581146107b15760405163b4fa3fb360e01b815260040160405180910390fd5b60005b818110156108ee578787828181106107ce576107ce612e55565b90506020020160208101906107e39190612e79565b6001600160a01b0384166000908152600260205260408120908c8c8581811061080e5761080e612e55565b90506020020160208101906108239190612bdd565b6001600160a01b031681526020810191909152604001600020805460ff19169115159190911790557f394777a58092892d136a90c4bb7e4350c72ac50fba6a0208128677f36527dcf5838b8b8481811061087f5761087f612e55565b90506020020160208101906108949190612bdd565b8a8a858181106108a6576108a6612e55565b90506020020160208101906108bb9190612e79565b604080516001600160a01b03948516815293909216602084015215159082015260600160405180910390a16001016107b4565b50505050505050505050565b600080600080610908611351565b91945092509050336001600160a01b03831614801561092657508086145b801561093157504683145b1561094f5760405163b79e3f3f60e01b815260040160405180910390fd5b6109576105df565b50630a85bd0160e11b979650505050505050565b60006109788484846114bb565b1561098b5750630b135d3f60e11b61098f565b5060005b9392505050565b60608160006109a3611648565b90503660005b83811015610bb2578686828181106109c3576109c3612e55565b905060600201915060008260200160208101906109e09190612bdd565b905060408301356000610a387f00000000000000000000000000000000000000000000000000000000000000007f00000000000000000000000000000000000000000000000000000000000000008735468787611652565b9050826001600160a01b03163b600003610a6557604051631052dd2560e21b815260040160405180910390fd5b6001600160a01b0381163b15610af557806001600160a01b031663a4e2d6346040518163ffffffff1660e01b8152600401602060405180830381865afa158015610ab3573d6000803e3d6000fd5b505050506040513d601f19601f82011682018060405250810190610ad79190612e96565b15610af557604051636315bfbb60e01b815260040160405180910390fd5b6040516331a9108f60e11b8152600481018390526001600160a01b03841690636352211e90602401602060405180830381865afa925050508015610b56575060408051601f3d908101601f19168201909252610b5391810190612eb3565b60015b610b7357604051631052dd2560e21b815260040160405180910390fd5b866001600160a01b0316816001600160a01b031614610ba557604051631052dd2560e21b815260040160405180910390fd5b50945050506001016109a9565b50610bbc826116dc565b610bd95760405163ea8e4eb560e01b815260040160405180910390fd5b610be161148e565b610bee8b8b8b8b8b6118c4565b9b9a5050505050505050505050565b6000610c07611aa0565b610c1385858585611ada565b95945050505050565b6000610c26611b53565b610c308484611bd0565b905061098f82611c0b565b6060610c4d610c48611648565b6116dc565b610c6a5760405163ea8e4eb560e01b815260040160405180910390fd5b610c7261148e565b816000816001600160401b03811115610c8d57610c8d6126b3565b604051908082528060200260200182016040528015610cc057816020015b6060815260200190600190039081610cab5790505b50905060005b82811015610dbc57610d97868683818110610ce357610ce3612e55565b9050602002810190610cf59190612ed0565b610d03906020810190612bdd565b878784818110610d1557610d15612e55565b9050602002810190610d279190612ed0565b60200135888885818110610d3d57610d3d612e55565b9050602002810190610d4f9190612ed0565b610d5d906040810190612ee6565b8a8a87818110610d6f57610d6f612e55565b9050602002810190610d819190612ed0565b610d92906080810190606001612f2c565b6118c4565b828281518110610da957610da9612e55565b6020908102919091010152600101610cc6565b509150505b92915050565b6000610dd1611aa0565b610e118484848080601f016020809104026020016040519081016040528093929190818152602001838380828437600092019190915250611c5892505050565b949350505050565b6060610e26610c48611648565b610e435760405163ea8e4eb560e01b815260040160405180910390fd5b610e4b61148e565b610e5886868686866118c4565b9695505050505050565b6000610ea48484848080601f016020809104026020016040519081016040528093929190818152602001838380828437600092019190915250611c9592505050565b1561098b5750630291f19360e51b61098f565b7f00000000000000000000000000000000000000000000000000000000000000006001600160a01b0390811691161490565b6000806000610ef6611351565b9250925092506000610f0984848461135f565b90506001600160a01b038116610f325760405163ea8e4eb560e01b815260040160405180910390fd5b336001600160a01b03821614610f5b5760405163ea8e4eb560e01b815260040160405180910390fd5b610f6361148e565b6000610f6e3061137b565b9050806001600160a01b03163b600003610f8b57610f8b30611d43565b87868114610fac5760405163b4fa3fb360e01b815260040160405180910390fd5b60005b8181101561110257888882818110610fc957610fc9612e55565b9050602002016020810190610fde9190612bdd565b6001600160a01b0385166000908152600160205260408120908d8d8581811061100957611009612e55565b905060200201602081019061101e91906125d4565b6001600160e01b0319168152602081019190915260400160002080546001600160a01b0319166001600160a01b03929092169190911790557f2c722487e90aca38ec1b074c3403210bd2bfb769b4da7f12f7bf0b9e37517c18848c8c8481811061108a5761108a612e55565b905060200201602081019061109f91906125d4565b8b8b858181106110b1576110b1612e55565b90506020020160208101906110c69190612bdd565b604080516001600160a01b0394851681526001600160e01b031993909316602084015292168183015290519081900360600190a1600101610faf565b5050505050505050505050565b60008060008061111d611351565b92509250925061112e838383611d7b565b935050505090565b6060611140611aa0565b610c13858585858080601f016020809104026020016040519081016040528093929190818152602001838380828437600092019190915250611e1a92505050565b600061118b6105df565b5063bc197c8160e01b95945050505050565b60007f0000000000000000000000000000000000000000000000000000000000000000604051631aab3f0d60e11b8152306004820152600060248201526001600160a01b0391909116906335567e1a90604401602060405180830381865afa15801561120d573d6000803e3d6000fd5b505050506040513d601f19601f820116820180604052508101906112319190612f47565b905090565b6000806000611243611351565b925092509250600061125684848461135f565b90506001600160a01b03811661127f5760405163ea8e4eb560e01b815260040160405180910390fd5b336001600160a01b038216146112a85760405163ea8e4eb560e01b815260040160405180910390fd5b6112b6426301e13380612f76565b8511156112d6576040516301814f7d60e31b815260040160405180910390fd5b6112de61148e565b60008590556040518581527fa7b24c66dd3269a292a60b3facdbb8f3e7557d1e19e64d99e0d6ee7250be63ad9060200160405180910390a15050505050565b60006113276105df565b5063f23a6e6160e01b95945050505050565b6000806000611346611351565b925092509250909192565b600080600061134630611e93565b60008061136d858585611d7b565b9050610c1381868686611ee8565b6000610dc17f97f795a08410e77dc9dbbaba3915f17c601e45642518dd578bd440d8775bfee46113aa84611fb7565b80519060200120612022565b60006001600160e01b03198216635194544760e01b1480610dc15750610dc18261202f565b60008060006113e8611351565b92509250925060006113fb84848461135f565b6001600160a01b0380821660009081526001602090815260408083206001600160e01b031984351684529091529020549192501680156106e157600080826001600160a01b0316600036604051611453929190612f89565b600060405180830381855afa9150503d80600081146106c2576040519150601f19603f3d011682016040523d82523d6000602084013e6106c7565b6000544210156114b157604051636315bfbb60e01b815260040160405180910390fd5b6114b9612054565b565b600080838360408181106114d1576114d1612e55565b919091013560f81c9150600090508181036115b8576114f4602060008688612f99565b6114fd91612fc3565b60001c905061151b8160405180602001604052806000815250611c95565b15801561153157506001600160a01b0381163014155b156115415760009250505061098f565b3660008686611554604060208385612f99565b61155d91612fc3565b611568928290612f99565b915091506115ad838984848080601f01602080910402602001604051908101604052809392919081815260200183838082843760009201919091525061208e92505050565b94505050505061098f565b60006115fa8787878080601f01602080910402602001604051908101604052809392919081815260200183838082843760009201919091525061217a92505050565b9092509050600081600481111561161357611613612fe1565b14611624576000935050505061098f565b61163d8260405180602001604052806000815250611c95565b979650505050505050565b60006112316121bf565b6040805160b78082018490526001600160a01b038516609783015260778201869052605782018790526e5af43d82803e903d91602b57fd5bf3603783015260288201889052733d60ad80600a3d3981f3363d3d373d3d3d363d736014830152815260d7810190915280516020909101206000906116d086828a6121ee565b98975050505050505050565b60007f00000000000000000000000000000000000000000000000000000000000000006001600160a01b0316826001600160a01b03160361171f57506001919050565b600080600061172c611351565b925092509250468314611812573061175f611745611648565b731111000000000000000000000000000000001110190190565b6001600160a01b03160361177857506001949350505050565b6040516333932be560e11b81526001600160a01b0386811660048301527f0000000000000000000000000000000000000000000000000000000000000000169063672657ca90602401602060405180830381865afa1580156117de573d6000803e3d6000fd5b505050506040513d601f19601f820116820180604052508101906118029190612e96565b1561181257506001949350505050565b600061181f848484611d7b565b9050806001600160a01b0316866001600160a01b0316036118465750600195945050505050565b600061185482868686611ee8565b9050806001600160a01b0316876001600160a01b03160361187c575060019695505050505050565b6001600160a01b038082166000908152600260209081526040808320938b168352929052205460ff16156118b7575060019695505050505050565b5060009695505050505050565b606060ff82166119165761190f868686868080601f016020809104026020016040519081016040528093929190818152602001838380828437600092019190915250611e1a92505050565b9050610c13565b60001960ff83160161198057600061192d3061137b565b9050806001600160a01b03163b60000361194a5761194a30611d43565b611978818789888860405160200161196493929190612ff7565b604051602081830303815290604052611e1a565b915050610c13565b60011960ff831601611a05576119cc8585858080601f016020809104026020016040519081016040528093929190818152602001838380828437600092019190915250611c5892505050565b6040516020016119ef919060609190911b6001600160601b031916815260140190565b6040516020818303038152906040529050610c13565b60021960ff831601611a87576000611a206020828688612f99565b611a2991612fc3565b9050366000611a3b866020818a612f99565b91509150611a4b88848484611ada565b604051602001611a6e919060609190911b6001600160601b031916815260140190565b6040516020818303038152906040529350505050610c13565b604051631cc6a69960e11b815260040160405180910390fd5b611aa93061137b565b6001600160a01b0316336001600160a01b0316146114b95760405163ea8e4eb560e01b815260040160405180910390fd5b60008083838080601f01602080910402602001604051908101604052809392919081815260200183838082843760009201919091525050825192935087929150506020830188f591506001600160a01b038216611b4a5760405163a28c247360e01b815260040160405180910390fd5b50949350505050565b336001600160a01b037f000000000000000000000000000000000000000000000000000000000000000016146114b95760405162461bcd60e51b815260206004820152601c60248201527f6163636f756e743a206e6f742066726f6d20456e747279506f696e740000000060448201526064015b60405180910390fd5b6000611bf2611bdf8484612218565b611bed610140860186612ee6565b6114bb565b15611bff57506000610dc1565b50600192915050565b50565b8015611c0857604051600090339060001990849084818181858888f193505050503d80600081146106e1576040519150601f19603f3d011682016040523d82523d6000602084013e6106e1565b805160009082906020820185f091506001600160a01b038216611c8e5760405163a28c247360e01b815260040160405180910390fd5b5092915050565b600080600080611ca3611351565b9250925092506000611cb6848484611d7b565b9050806001600160a01b0316876001600160a01b031603611cde576001945050505050610dc1565b6000611cec82868686611ee8565b9050806001600160a01b0316886001600160a01b031603611d1557600195505050505050610dc1565b6001600160a01b038082166000908152600260209081526040808320938c168352929052205460ff166116d0565b611d7760007f97f795a08410e77dc9dbbaba3915f17c601e45642518dd578bd440d8775bfee4611d7284611fb7565b61224c565b5050565b6000468414611d8c5750600061098f565b826001600160a01b03163b600003611da65750600061098f565b6040516331a9108f60e11b8152600481018390526001600160a01b03841690636352211e90602401602060405180830381865afa925050508015611e07575060408051601f3d908101601f19168201909252611e0491810190612eb3565b60015b611e135750600061098f565b905061098f565b60606000846001600160a01b03168484604051611e379190612e39565b60006040518083038185875af1925050503d8060008114611e74576040519150601f19603f3d011682016040523d82523d6000602084013e611e79565b606091505b509250905080611e8b57815160208301fd5b509392505050565b60408051606080825260808201909252600091829182918291906020820181803683370190505090506060604d60208301873c80806020019051810190611eda9190613023565b935093509350509193909250565b6000845b611f37817f00000000000000000000000000000000000000000000000000000000000000007f0000000000000000000000000000000000000000000000000000000000000000612350565b15610c1357806001600160a01b031663fc0c546a6040518163ffffffff1660e01b8152600401606060405180830381865afa158015611f7a573d6000803e3d6000fd5b505050506040513d601f19601f82011682018060405250810190611f9e9190613023565b91965094509250611fb0858585611d7b565b9050611eec565b60606040518060400160405280600e81526020016d604380600d600039806000f3fe7360901b815250826040518060600160405280602e8152602001613145602e913960405160200161200c9392919061305c565b6040516020818303038152906040529050919050565b600061098f8383306121ee565b60006001600160e01b03198216636faff5f160e01b1480610dc15750610dc1826123ff565b60035461205f612434565b604051602001612071939291906130a3565b60408051601f198184030181529190528051602090910120600355565b6000806000856001600160a01b0316631626ba7e60e01b86866040516024016120b89291906130d9565b60408051601f198184030181529181526020820180516001600160e01b03166001600160e01b03199094169390931790925290516120f69190612e39565b600060405180830381855afa9150503d8060008114612131576040519150601f19603f3d011682016040523d82523d6000602084013e612136565b606091505b509150915081801561214a57506020815110155b8015610e5857508051630b135d3f60e11b9061216f9083016020908101908401612f47565b149695505050505050565b60008082516041036121b05760208301516040840151606085015160001a6121a487828585612447565b945094505050506121b8565b506000905060025b9250929050565b60006121ca33610eb7565b80156121d7575060143610155b156121e9575060131936013560601c90565b503390565b6000604051836040820152846020820152828152600b8101905060ff815360559020949350505050565b7f19457468657265756d205369676e6564204d6573736167653a0a3332000000006000908152601c829052603c812061098f565b60008347101561229e5760405162461bcd60e51b815260206004820152601d60248201527f437265617465323a20696e73756666696369656e742062616c616e63650000006044820152606401611bc7565b81516000036122ef5760405162461bcd60e51b815260206004820181905260248201527f437265617465323a2062797465636f6465206c656e677468206973207a65726f6044820152606401611bc7565b8282516020840186f590506001600160a01b03811661098f5760405162461bcd60e51b815260206004820152601960248201527f437265617465323a204661696c6564206f6e206465706c6f79000000000000006044820152606401611bc7565b6000836001600160a01b03163b60ad1461236c5750600061098f565b60006123778561250b565b9050806001600160a01b03163b60000361239557600091505061098f565b836001600160a01b0316816001600160a01b0316146123b857600091505061098f565b6000806000806123c78961251d565b93509350935093506123dd878686868686611652565b6001600160a01b0316896001600160a01b031614955050505050509392505050565b60006001600160e01b03198216630271189760e51b1480610dc157506301ffc9a760e01b6001600160e01b0319831614610dc1565b36600061243f612575565b915091509091565b6000807f7fffffffffffffffffffffffffffffff5d576e7357a4501ddfe92f46681b20a083111561247e5750600090506003612502565b6040805160008082526020820180845289905260ff881692820192909252606081018690526080810185905260019060a0016020604051602081039080840390855afa1580156124d2573d6000803e3d6000fd5b5050604051601f1901519150506001600160a01b0381166124fb57600060019250925050612502565b9150600090505b94509492505050565b60006014600a600c843c505060005190565b60408051608080825260a0820190925260009182918291829182916020820181803683370190505090506080602d60208301883c8080602001905181019061256591906130f2565b9450945094509450509193509193565b36600061258133610eb7565b801561258e575060143610155b156125af57600080366125a2601482613131565b9261243f93929190612f99565b60003661243f565b80356001600160e01b0319811681146125cf57600080fd5b919050565b6000602082840312156125e657600080fd5b61098f826125b7565b60008083601f84011261260157600080fd5b5081356001600160401b0381111561261857600080fd5b6020830191508360208260051b85010111156121b857600080fd5b6000806000806040858703121561264957600080fd5b84356001600160401b038082111561266057600080fd5b61266c888389016125ef565b9096509450602087013591508082111561268557600080fd5b50612692878288016125ef565b95989497509550505050565b6001600160a01b0381168114611c0857600080fd5b634e487b7160e01b600052604160045260246000fd5b604051601f8201601f191681016001600160401b03811182821017156126f1576126f16126b3565b604052919050565b600082601f83011261270a57600080fd5b81356001600160401b03811115612723576127236126b3565b612736601f8201601f19166020016126c9565b81815284602083860101111561274b57600080fd5b816020850160208301376000918101602001919091529392505050565b6000806000806080858703121561277e57600080fd5b84356127898161269e565b935060208501356127998161269e565b92506040850135915060608501356001600160401b038111156127bb57600080fd5b6127c7878288016126f9565b91505092959194509250565b60008083601f8401126127e557600080fd5b5081356001600160401b038111156127fc57600080fd5b6020830191508360208285010111156121b857600080fd5b60008060006040848603121561282957600080fd5b8335925060208401356001600160401b0381111561284657600080fd5b612852868287016127d3565b9497909650939450505050565b60006020828403121561287157600080fd5b5035919050565b6000806040838503121561288b57600080fd5b82356128968161269e565b915060208301356128a68161269e565b809150509250929050565b803560ff811681146125cf57600080fd5b600080600080600080600060a0888a0312156128dd57600080fd5b87356128e88161269e565b96506020880135955060408801356001600160401b038082111561290b57600080fd5b6129178b838c016127d3565b909750955085915061292b60608b016128b1565b945060808a013591508082111561294157600080fd5b818a0191508a601f83011261295557600080fd5b81358181111561296457600080fd5b8b602060608302850101111561297957600080fd5b60208301945080935050505092959891949750929550565b60005b838110156129ac578181015183820152602001612994565b50506000910152565b600081518084526129cd816020860160208601612991565b601f01601f19169290920160200192915050565b60208152600061098f60208301846129b5565b60008060008060608587031215612a0a57600080fd5b843593506020850135925060408501356001600160401b03811115612a2e57600080fd5b612692878288016127d3565b600080600060608486031215612a4f57600080fd5b83356001600160401b03811115612a6557600080fd5b84016101608187031215612a7857600080fd5b95602085013595506040909401359392505050565b60008060208385031215612aa057600080fd5b82356001600160401b03811115612ab657600080fd5b612ac2858286016125ef565b90969095509350505050565b600060208083016020845280855180835260408601915060408160051b87010192506020870160005b82811015612b2557603f19888603018452612b138583516129b5565b94509285019290850190600101612af7565b5092979650505050505050565b600080600080600060808688031215612b4a57600080fd5b8535612b558161269e565b94506020860135935060408601356001600160401b03811115612b7757600080fd5b612b83888289016127d3565b9094509250612b969050606087016128b1565b90509295509295909350565b600080600060408486031215612bb757600080fd5b8335612bc28161269e565b925060208401356001600160401b0381111561284657600080fd5b600060208284031215612bef57600080fd5b813561098f8161269e565b60008060008060608587031215612c1057600080fd5b8435612c1b8161269e565b93506020850135925060408501356001600160401b03811115612a2e57600080fd5b600082601f830112612c4e57600080fd5b813560206001600160401b03821115612c6957612c696126b3565b8160051b612c788282016126c9565b9283528481018201928281019087851115612c9257600080fd5b83870192505b8483101561163d57823582529183019190830190612c98565b600080600080600060a08688031215612cc957600080fd5b8535612cd48161269e565b94506020860135612ce48161269e565b935060408601356001600160401b0380821115612d0057600080fd5b612d0c89838a01612c3d565b94506060880135915080821115612d2257600080fd5b612d2e89838a01612c3d565b93506080880135915080821115612d4457600080fd5b50612d51888289016126f9565b9150509295509295909350565b60008060408385031215612d7157600080fd5b8235612d7c8161269e565b9150612d8a602084016125b7565b90509250929050565b600080600080600060a08688031215612dab57600080fd5b8535612db68161269e565b94506020860135612dc68161269e565b9350604086013592506060860135915060808601356001600160401b03811115612def57600080fd5b612d51888289016126f9565b60006bffffffffffffffffffffffff19808760601b16835284866014850137848301818560601b166014820152602881019250505095945050505050565b60008251612e4b818460208701612991565b9190910192915050565b634e487b7160e01b600052603260045260246000fd5b8015158114611c0857600080fd5b600060208284031215612e8b57600080fd5b813561098f81612e6b565b600060208284031215612ea857600080fd5b815161098f81612e6b565b600060208284031215612ec557600080fd5b815161098f8161269e565b60008235607e19833603018112612e4b57600080fd5b6000808335601e19843603018112612efd57600080fd5b8301803591506001600160401b03821115612f1757600080fd5b6020019150368190038213156121b857600080fd5b600060208284031215612f3e57600080fd5b61098f826128b1565b600060208284031215612f5957600080fd5b5051919050565b634e487b7160e01b600052601160045260246000fd5b80820180821115610dc157610dc1612f60565b8183823760009101908152919050565b60008085851115612fa957600080fd5b83861115612fb657600080fd5b5050820193919092039150565b80356020831015610dc157600019602084900360031b1b1692915050565b634e487b7160e01b600052602160045260246000fd5b6bffffffffffffffffffffffff198460601b168152818360148301376000910160140190815292915050565b60008060006060848603121561303857600080fd5b83519250602084015161304a8161269e565b80925050604084015190509250925092565b6000845161306e818460208901612991565b606085901b6001600160601b0319169083019081528351613096816014840160208801612991565b0160140195945050505050565b83815260406020820152816040820152818360608301376000818301606090810191909152601f909201601f1916010192915050565b828152604060208201526000610e1160408301846129b5565b6000806000806080858703121561310857600080fd5b845193506020850151925060408501516131218161269e565b6060959095015193969295505050565b81810381811115610dc157610dc1612f6056fe3314601d573d3dfd5b363d3d373d3d6014360360143d5160601c5af43d6000803e80603e573d6000fd5b3d6000f3a26469706673582212201281b20fe8ccde82b8d30dfb5a8c77f7530fbff9f7ea1919e7f65cdc09489a0164736f6c63430008180033","linkReferences":{}},"methodIdentifiers":{"entryPoint()":"b0d691fe","erc6551Registry()":"056d5afe","execute(address,uint256,bytes,uint8)":"51945447","executeBatch((address,uint256,bytes,uint8)[])":"43629a73","executeNested(address,uint256,bytes,uint8,(bytes32,address,uint256)[])":"1fb1ecf0","extcall(address,uint256,bytes)":"b709467c","extcreate(uint256,bytes)":"45a24e3e","extcreate2(uint256,bytes32,bytes)":"34715fb1","extsload(bytes32)":"1e2eaeaf","getNonce()":"d087d288","isLocked()":"a4e2d634","isTrustedForwarder(address)":"572b6c05","isValidSignature(bytes32,bytes)":"1626ba7e","isValidSigner(address,bytes)":"523e3260","lock(uint256)":"dd467064","lockedUntil()":"ce0617ec","onERC1155BatchReceived(address,address,uint256[],uint256[],bytes)":"bc197c81","onERC1155Received(address,address,uint256,uint256,bytes)":"f23a6e61","onERC721Received(address,address,uint256,bytes)":"150b7a02","overrides(address,bytes4)":"ee9c6054","owner()":"8da5cb5b","permissions(address,address)":"1f9838b5","setOverrides(bytes4[],address[])":"7a8f7356","setPermissions(address[],bool[])":"039721b1","state()":"c19d93fb","supportsInterface(bytes4)":"01ffc9a7","token()":"fc0c546a","validateUserOp((address,uint256,bytes,bytes,uint256,uint256,uint256,uint256,uint256,bytes,bytes),bytes32,uint256)":"3a871cdd"},"id":42}